:020000040000FA
:10000000020550020823FFFFFFFFFF02082BFFFF3E
:10001000FFFFFF020833FFFFFFFFFF02083BFFFF68
:10002000FFFFFF020843FFFFFFFFFF02084BFFFF38
:10003000FFFFFF020853FFFFFFFFFF02085BFFFF08
:10004000FFFFFF020863FFFFFFFFFF02086BFFFFD8
:10005000FFFFFF020873FFFFFFFFFF02087BFFFFA8
:10006000FFFFFF020883FFFFFFFFFF02088BFFFF78
:10007000FFFFFF020893FFFFFFFFFF02089BFFFF48
:10008000FFFFFF0208A3FFFFFFFFFF0208AB010015
:1000900000035F005F003000580000000000000017
:1000A0000000000000000000000000000000000050
:1000B00000000000000000000000AF03E103E103C6
:1000C000E103E103E503EB3C904D53444F53352EE0
:1000D0003000020401000210000000F801000000DE
:1000E00000000400000004000000000029000000DF
:1000F000004E4F204E414D45202020204641543196
:100100003220202074F712026043C707E59D54187F
:100110006410704275080475090078081204F07CB8
:10012000A07D147A9C7B0679011205E57402120405
:10013000709014A0E0F8A3E0F9A3E0687003A3E0D6
:100140006970139014A0E0F47003A3E0F46007E872
:1001500049600312060F781075B60FE5B4A2E75098
:10016000FAE5BBC3944A40F018E870EC75A8007536
:10017000B800759A0075C6809062707408F07901B5
:100180007F0202036FE4CFC0E0E4CEC0E0E4CDC064
:10019000E0E4CCC0E075F020E626F608E633F60889
:1001A000E633F608E633F6181818EC33FCED33FDA9
:1001B000EE33FEEF33FFC3EC9709ED9709EE970995
:1001C000EF97191919400FFFEC97FC09ED97FD09FE
:1001D000EE97FE191906D5F0BFECF709EDF709EE19
:1001E000F709EFF7191919D0E0FCD0E0FDD0E0FED7
:1001F000D0E0FF222514C582C0E0E51534FFC58399
:10020000C0E0E514C3958224F810AF0885831585F6
:1002100082148008858315858214D2AFCEF0A3E5C1
:1002200020F0A37808E608F0A3DEFAEFF0A3E5815A
:1002300024FAF8E608F0A3E608F0A3E608F0A3081D
:1002400008E608F0A3E608F0A315811581D0E0FECA
:10025000D0E0F8158115811581E8C0E0EEC0E022FC
:100260002514C582C0E0E51534FFC583C0E0E51460
:10027000C3958224F910AF08858315858214800800
:10028000858315858214D2AFCEF0A3E520F0A37844
:1002900008E608F0A3DEFAEFF0A3E58124FBF8E618
:1002A00008F0A3E608F0A30808E608F0A3E608F0C3
:1002B000A315811581D0E0FED0E0F815811581E805
:1002C000C0E0EEC0E022120104B90003020313E40F
:1002D00079167807B800028004F709D8FCE4900387
:1002E00000782B79018002F0A3D8FCD9FA7A2A7B16
:1002F0000390008E787779018015E493A3AD82AEE8
:10030000838A828B83F0A3AA82AB838D828E83D86B
:10031000E9D9E77582287583CB7407120452758278
:10032000DE7583057400120452851583851482E0FE
:10033000A3FEE0A3F5207808E0A3F608DFFAE0A327
:10034000FFE0A3C0E0E0A3C0E0E0A3C0E0E0A3C002
:10035000E0E0A3C0E010AF08858214858315800813
:10036000858214858315D2AFD083D082020458854C
:100370001583851482E0A3FEE0A3F5207808E0A3AE
:10038000F608DFFAE0A3FFE0A3C0E0E0A3C0E0E0EE
:10039000A3C0E0E0A3C0E010AF08858214858315F8
:1003A0008008858214858315D2AFD083D082221233
:1003B000010002000000205104A8160900010203F8
:1003C0000109022000010100800F09040000020859
:1003D00006500007058402400000070504024000A3
:1003E00000CA03102074038000CCC0E0EDC0E0E53B
:1003F00014C39CCCAD1550011D10AF068C148D1587
:1004000080068C148D15D2AF120412D0E0FDD0E01E
:10041000FC22CAC0E0E0A3C582CCC582C583CDC59D
:1004200083F0A3C582CCC582C583CDC583DAE6D06F
:10043000E0CA227009080808226016181818C6C3F6
:1004400033C608C633C608C633C608C633C6D5E0A9
:10045000EA22C09FF59FE473D09F22D083D082C050
:100460009FE493C0E0740193C0E0740293F59F226F
:1004700000C0D0251410AF08F514500C05158008E5
:10048000F51450020515D2AFD0D0222514F58210F4
:10049000AF08F514400C15158008F5144002151529
:1004A000D2AF85158322BB0102E722C082C08389B7
:1004B000828A83BB0003E08002E493D083D082224F
:1004C000251410AF08F514400C15158008F51440DC
:1004D000021515D2AF22BB000EC082C0838A838969
:1004E00082F0D083D08222BB0101F7227403800402
:1004F00074028000C0E0F40412048BD0E01205AF57
:1005000022E76670100809E766700A0809E7667056
:10051000040809E76622C3E096F008A3E096F00815
:10052000A3E096F008A3E096F022E026F608A3E008
:1005300036F608A3E036F608A3E036F62270042269
:10054000600D18C6C333C608C633C6D5E0F41822FA
:1005500075D00075813F751400751503759F0002F5
:1005600002C62514FAE43515FB222514FCE43515E2
:10057000FD22C3E09608A3E09608A3E09608A3E056
:100580009622600C08C6C313C618C613C6D5E0F47D
:1005900022E0F608A3E0F608A3E0F608A3E0F622BE
:1005A000E6F008A3E6F008A3E6F008A3E6F022CA06
:1005B000C0E0E6F0A308DAFAD0E0FA22EAF0A3EB12
:1005C000F0A3ECF0A3EDF022E0FAA3E0FBA3E0FC43
:1005D000A3E0FD222514F582E43515F58322000001
:1005E0000080FBE47312045B5CC10712045BDCC196
:1005F0000712045B40C20712045B3FC40712045B8E
:1006000055C50712045B14C60712045B62C70712C4
:10061000045BF3C80712045B00C90712045B4DC9F1
:100620000712045B6DC90712045B2CCA0712045B36
:100630004ECB0712045BC8CB0712045BE7CB071253
:10064000045B2CCC0712045B67CC0712045B16CD4D
:100650000712045B4FCD0712045B6ECD0712045BDB
:1006600097CF0712045BB1CF0712045BE6CF0712E6
:10067000045B12D00712045B50D00712045BF0D069
:100680000712045BC9D10712045BB6D20712045BE0
:10069000C8D20712045BDAD20712045B25D3071213
:1006A000045BB0D40712045B10D60712045B48D673
:1006B0000712045BF1D60712045B4ED70712045BE6
:1006C000C4D70712045B62D80712045BF6D807127E
:1006D000045B10D90712045B06DA0712045B5EDCC8
:1006E0000712045B01DE0712045BC8DE0712045B1D
:1006F000C4E00712045BABE10712045B18E20712C7
:10070000045B4CE20712045BC3E20712045BD6E40D
:100710000712045B05E60712045B07E60712045B99
:1007200044E60712045B46E60712045B48E607123C
:10073000045B59E60712045B5BE60712045B5EE6A6
:100740000712045B53070012045B9F070012045B4F
:1007500061E60774F71201F474091205D4E0FEA3F0
:10076000E08015A3AA82AB838C828D83A3AC82AD7B
:1007700083EE24FF1EEF34FFFFEE4F60198C828D55
:1007800083E0F88A828B83E0F9E86960D6E9C39850
:10079000FA95E0FB80047A007B007F010203297454
:1007A000F61201F4EAF8EBF9740A1205D4E0FEA39C
:1007B000E0FF80188C828D83E088828983F0A3A873
:1007C00082A9838C828D83A3AC82AD838E088F092E
:1007D000E50824FF1EE50934FFFFE508450970D44C
:1007E0007F02020329FFFFFFFFFFFFFFFFFFFFFF65
:1007F000FFFFFFFFFFFFFFFFFFFFFFFFFFFFFFFF09
:020000040003F7
:10C00000240354004900200043004300320035005F
:10C0100033003100200055005300420020004D0045
:10C0200053004400008002021F00000047656E6557
:10C030007269632055534220466C617368204469DD
:10C04000736B2020302E30302403540065007800BC
:10C0500061007300200049006E00730074007200DC
:10C0600075006D0065006E00740073004445464124
:10C07000554C5420434647200015095A473F473F37
:10C0800000008656473F02006400000000000000E8
:10C0900000000000000000000000000000000000A0
:10C0A000000000000000000000000000FFFFFFFF94
:10C0B000FFFFFFFFFFFFFFFFFFFFFFFFFFFFFFFF90
:10C0C000FFFFFFFFFFFFFFFFFFFFFFFFFFFFFFFF80
:10C0D000FFFFFFFFFFFFFFFFFFFFFFFF30313233A6
:10C0E0003435363738394142434445460100000073
:10C0F00000000000000000000000000159305470F2
:10C10000614675725159674C492166350000000837
:10C110000000000002000200000000000000020019
:10C12000FFFFFFFFFFFFFFFFFFFFFFFFF0FFFFFF2E
:10C1300055534243555342537D000000FFFFFFFF1C
:10C140000080020004030904030000000000000056
:10C1500043464700000000007601000074F512011C
:10C16000F4890A740F550AF508750900740B7808EC
:10C1700012053DEA2400F8EB3480F9E82400E935A3
:10C1800009F985C709A2AFE433F508C2AFE50AC4CF
:10C19000540FFAE5C754F84AF5C7740B1205D412C8
:10C1A000CFE0801C88828983E08C828D83F0888236
:10C1B0008983A3A882A9838C828D83A3AC82AD835B
:10C1C000EAFEEBFFEE24FF1AEF34FFFBEE4F70D4D4
:10C1D0008509C7E508A2E092AF02CF7874F6120194
:10C1E000F4ED901584F0ECA3F0A37462F0A37473E3
:10C1F000F0A3E0541FF0740A1205D4E0F508A3E0A0
:10C20000F509E508333354FC901589F07406780875
:10C21000120582E508901588F090158A7412F0A333
:10C220007442F075D1FE75D601EA906271F0EBA30D
:10C23000F0906270E0D2E1F0E0A2E740FB02C60FAE
:10C2400074F61201F474CF1204C07F007508208FB9
:10C250000978081204F0740312056A7A007B0079E9
:10C26000011205E574021204701206219003007495
:10C2700001F07E01EE131313541FF874D828F582D1
:10C28000E43414F583E0C0E074075EF8D0E0B80051
:10C29000028004C313D8FCA2E050710F750800752A
:10C2A000090878081204F07CA07D0B7A007B00EE70
:10C2B000F91205E574021204707800790074016FB8
:10C2C0007010E849700C78107900900BB574FFF08D
:10C2D000801374151205D4E06F700A74F06870034F
:10C2E000740769603143B3017A1012C432700109D6
:10C2F0001AEA70F6E5B3A2E350FAC3E9940840BD28
:10C3000074151205D4E0F8EFC398500A0EEEC394EA
:10C3100077500302C27475B30100000000000000F2
:10C320000078F0790712C432700109C3E99408401B
:10C33000F4851482851583740FF0E0F874FF28F0FB
:10C340000470F77A00E5B2C0E0EAF874211205D46F
:10C3500012CCFCD0E0F00AEAC3941040E874161244
:10C3600005D4E06052E4F0750810F509780812046D
:10C37000F0742312056A74031205621207477402EF
:10C3800012047075080878081204F0740312056A24
:10C390007A007B021205EB74021204707508207893
:10C3A000081204F0740312056A7A007B0079011206
:10C3B00005E57402120470750810750900780812FA
:10C3C00004F0742312056A740312056212074174A3
:10C3D000021204708B09EA450960047900804B75EC
:10C3E000080475090078081204F07CA07D147A9C7A
:10C3F0007B0679011205E574021204709014A012F4
:10C40000CB98A3E8F0A3E9F09014A074FFF0A3F098
:10C4100075080178081204F07CA07D147AA77B03CC
:10C420001205EB7402120470790174311204700267
:10C43000C60F74A028F582740B12C54E08E822744A
:10C44000F41201F474DF1204C08908EAFEEBFF90D5
:10C45000C0EC741112056A7410120412EEF8EFF9B0
:10C4600075B33700000000000000007C00ECFA7497
:10C47000111205D4E5822AF582E43583F583E0F5CF
:10C48000B10CECC3941040E5E5B3A2E350FA7D8013
:10C4900075B33100000000000000007C0475090045
:10C4A000AA09E82A12C54B0509E509C3940440F01E
:10C4B000851482851583740FF0E0FA74FF2AF00466
:10C4C00070F7750900E5B2C0E0AA09E82AF582E430
:10C4D00039F583D0E0F00509E509C3940440E6E8A6
:10C4E0002404F85001091CEC70B31DED70A2740116
:10C4F0006508705090C0CC740112056A7410120463
:10C5000012750A10F50B780A1204F0740312056A0A
:10C51000EEFAEFFB12074174021204708B0BEA452E
:10C520000B601DEE2414F582E43FF583E06011C337
:10C530009477500CEE2415F582E43FF583E0600417
:10C54000790080027901742102CC5FF582E439F52B
:10C5500083E0F5B12274F61201F474FC1204C0EA0F
:10C56000FEEBFF901503E0607175082075090078F7
:10C57000081204F0EE2408FCE43FFD7AA87B1412B4
:10C58000074174021204708B09EA4509604C90154A
:10C5900000E0F9700F7901120615C2AF75C9AB75CD
:10C5A000C95B80FE78018004E8C333F8E85960F87D
:10C5B000E068F090C13CAC14AD1574041204121282
:10C5C000C8D71204F0740212056A7ABF7B03120501
:10C5D000EB74021204707900802B901503E4F0755F
:10C5E0000858F50978081204F0EE2404FCE43FFD35
:10C5F0007AA47B1412074774021204709014A2E408
:10C60000F0A3F07901740402C42C758B00C2E87F9A
:10C610000202032974EC1201F474FC1204C0120625
:10C62000C3E96401700302C7349014A612D64260B5
:10C63000ED9014F8E0A2E04032C313FA75080175DA
:10C64000090090159EE0780812053D12CB20550890
:10C650006004D2F08002C2F0EAA2E020F001B35000
:10C660000A9014A2E4F0A3F002C711E595851482A4
:10C67000851583F0659570F3E596C0E074011205A9
:10C68000D4D0E0F0E597C0E074021205D4D0E0F019
:10C6900074031205D4E4F090159078081205918582
:10C6A0001482851583780812051674031205D4E4E4
:10C6B000F090032AE0F508A3E0F5093395E0F50AC8
:10C6C000F50B851482851583780C12059190C14075
:10C6D0007810120591780C7910120185780C790880
:10C6E000120501700F90032AE02401F0A3E034004A
:10C6F000F063804085148285158378081205919037
:10C70000158C78081205725008900300E07002C280
:10C710009012C8E97003A3E069600302C61E90147A
:10C72000A0E0F47003A3E0F4700302C61EE84970B1
:10C730001902C61E12C8E97003A3E069701A9014AA
:10C74000A0E0F47003A3E0F4600E9014A012D642AF
:10C7500060061206C912060F74041204707F0C02E0
:10C76000032974F01201F474DC1204C075086475B6
:10C77000090078081204F07CA07D147A9C7B06796D
:10C78000011205E57402120470750820780812047D
:10C79000F07CAC7DC07AA87B1412074174021204AD
:10C7A000708B09EA45097005901503E4F012C8E999
:10C7B0007003A3E06970659014A0E0F47003A3E037
:10C7C000F46059E84960559014FCE0F9603D780147
:10C7D0008004E8C333F8E85960F8E068F070099025
:10C7E00014A2E4F0A3F0803490C128AC14AD157409
:10C7F0000412041212C8D71204F0740212056A7AE5
:10C80000BE7B031205EB74021204709014F8E0A2D0
:10C81000E04006120627E9700312060F9014A612D4
:10C82000D642600A74FF68700374FF69700A90143E
:10C83000A67460F0A374EAF09014A612D32028F82E
:10C84000E933F988088909E4F50AF50B740C7808CE
:10C8500012043390C138780C1205917808790C12C3
:10C86000018590158C78081205A0E595901590F03B
:10C87000659570F6E596A3F0E597A3F0A3E4F0784C
:10C880001075B60FE5B4A2E750FAE5BBC3944E406D
:10C89000F018E870EC12061B75082075090078087E
:10C8A0001204F0740612056A7A007B007901120501
:10C8B000E5740212047074191205D4E0600C741847
:10C8C0001205D4E0F460031205F11206BD742412BF
:10C8D00004707F08020329851482851583E068F0BF
:10C8E0007508017509007808229014A012CB9CA34A
:10C8F000E06822020820C2AF75C9AB75C95B80FE33
:10C90000C082C0837802E97027E8131313541FFA1A
:10C9100074C82AF582E43414F583E0C0E074075843
:10C92000FAD0E0BA00028004C313DAFCA2E0500E91
:10C93000E8C333906272F0906270E0D2E0F008E8F1
:10C94000C3947740C1906272740202CBD8C082C097
:10C95000837582FC7583C075B3450000000000003C
:10C9600000007810E0F5B1A3D8FA02CBE074F4121D
:10C9700001F474DC1204C0750820750900780812EF
:10C9800004F0740612056A7A007B0079011205E54D
:10C99000740212047075B35700000000000000001C
:10C9A000741075B1001470FA75B3510000000000E6
:10C9B00000000075B13A74141205D412D320F5B1F9
:10C9C000E9F5B17A00EAF874041205D4E58228F892
:10C9D000E43583F9E8241612C54B0AEAC3940A40E9
:10C9E000E474181205D4E0F508E4F50AF50B740BAD
:10C9F000780812043390C12C780812052A85148215
:10CA000085158378081205A074021205D4E0F5B1EB
:10CA100074011205D4E0F5B1851482851583E0F523
:10CA2000B1E5B3A2E350FA742402CC5F74F61201AC
:10CA3000F49014F9E0F8131313541FFA740758F91B
:10CA4000EA70047CF3800B74016A70047CF4800249
:10CA50007CF57D70E9F87401B800028004C333D816
:10CA6000FCF8F4FB8C828D83E05BF0EA70047CFDC3
:10CA7000800B74016A70047CFE80027CFF8C82E073
:10CA80005BF0EA70047C8F800B74016A70047CF6A2
:10CA900080027CF79014F8E0A2E250267508017538
:10CAA000090074052A780812053DE508F8E0A2E3BC
:10CAB000E85005F452F7800242F78C828D83E05BE8
:10CAC00080068C828D83E048F0E990159EF0EA7034
:10CAD000079015987480800E74016A901598700400
:10CAE0007490800274A0F0A37470F012CB20C0E0A8
:10CAF00090159EE0F8D0E0B800028004C313D8FC83
:10CB0000A2E092F09014F8E0A2E120F001B3500B03
:10CB10009014A2E4F0A3F079018002790002C60F1C
:10CB200090159812CBBFE0227415F5D575D48443C7
:10CB3000FD2053F3DF43FD4053F3BF538020120623
:10CB400009120603C2AF75C9AB75C95B80FEC0820E
:10CB5000C083E9FCEAFD7A007B00800312CBA2903F
:10CB6000030112CB98900358E0687003A3E069605A
:10CB700022900302E0F5838882A3E493F8EC6870C6
:10CB80000B90030112CFE012CBA28007ED6870CCAE
:10CB9000ED60C9804B90031A12CB9C22E0F8A3E011
:10CBA000F92290030112CBBFE493F8900301E0282F
:10CBB000F8A3E03400F9900301E8F0A3E9F022E0E3
:10CBC000F8A3E0F583888222C082C08312CC1D7A4C
:10CBD00000790112062D8008F0906270E0D2E0F03A
:10CBE000D083D08202045874F61201F4E9FFEAFE01
:10CBF00012CC1D7A00790212062DEA4B601CEF6000
:10CC0000108A828B83A3A3A3A3A3E4936F70E48011
:10CC100009EEF874FF28FE0470D902C60F9003567F
:10CC200012CB9C900301E8F0A3E9F02274F4120106
:10CC3000F4EAFF8B087A001206397A0279041206A8
:10CC40002DEA4B60188A828B83A3A3E4936F70EA6A
:10CC50008A828B83A3A3A3E493650870DD8003120B
:10CC600004707F0402032974F71201F474F81204AB
:10CC7000C0E97A007B00600B14600E146011146030
:10CC80001480717A447BC1806B7A487BC080657A5E
:10CC9000007BC0805F90032CE0705590C120AC14E5
:10CCA000AD1574081204127C287D00EDF8851482FD
:10CCB00085158312CCFCE0FFECF8742C28F8E434E2
:10CCC00003F9EF12CD0788828983F0EFC412CD07F4
:10CCD000C0E0E824FEF582E934FFF583D0E0F00DF2
:10CCE00074FC2CFCEDC3940840C190032C742AF012
:10CCF0007A2C7B03740812047002D00DE58228F5AB
:10CD000082E43583F58322540FFA74DC2AF582E439
:10CD100034C0F583E02274F61201F47A007901122E
:10CD200006398A828B83A3A3A3A3A3A3A3E493A21C
:10CD3000E6900316500474018001E4F0900315E4BA
:10CD4000F090620F7403F0E0A2E750FB02C60FC040
:10CD500082C0839003037402F0A3E4F090030AF00E
:10CD6000790312065D75160075170002CBE074F5A5
:10CD70001201F490620EE0FEE4F0906211E0FFA276
:10CD8000E4501D7480F090030A7407F0E51645170F
:10CD900060098516828517831205E390030AE4F083
:10CDA000EFA2E2500B906211E4F090030AF080646D
:10CDB00090030AE0F87402687043906216E0FF90F6
:10CDC00003171203E5EFF97A207B621206637403FE
:10CDD000120470EFF890031A12CF8D12CFDAE92FF8
:10CDE00012CF7DA312D64260047440800274489032
:10CDF0006211F0E849600302CF7302CF4F740668F6
:10CE000070098516828517831205E390030AE06096
:10CE10000302CEFEEFA2E0400302CF7375081C753B
:10CE20000903750A0078081204EC79087A207B62FD
:10CE300012066374031204707516007517009003D0
:10CE40001CE054E0601D24E0700302CED924E060B1
:10CE50007224C0604824E0700302CEE424E0606ED7
:10CE600002CEEFA3E014602624FE601D24FE600ABB
:10CE700024FC601F24FE6020807512069390030A34
:10CE8000E0640470727860807012068D80EF120684
:10CE90008780EA1206AB80E51206B780E0A3E06067
:10CEA0000E24FA600F24FE601024FE6011804012F0
:10CEB000067B80C912069980C41206A580BF12069F
:10CEC000B180BA75161D75170712071D80AF75164C
:10CED0002375170712072380A475161175170712FB
:10CEE00007118099751617751707120717808E900E
:10CEF000030A7404F0808E7840E8906211F0900389
:10CF00000AE0F8740168705D7F0212CB95C3E89463
:10CF100020E994005007E8F5087F0A80037508208F
:10CF20009003171203E5A9087A207B621206697440
:10CF300003120470AC0812CFDAE92C12CF7DA808D6
:10CF4000A312CF8DEF906211F0E8C394205024E536
:10CF500016451760098516828517831205E390032D
:10CF60000AE4F0800E7405687009851682851783BF
:10CF70001205E3EE90620EF07F03020329F9E43A12
:10CF8000FA900317E9F0A3EAF0A3EBF022C3E098CC
:10CF9000F0A3E09400F022C082C083E990030B78F4
:10CFA00005F0A3D8FC9003107805F0A3D8FC02CBC1
:10CFB000E074F71201F4EAFCEBFDE9F874091205DC
:10CFC000D412CFDDE860118C828D83E01204D6E9A3
:10CFD000240109E43AFAD8EF8033900317E0F9A36B
:10CFE000E0FAA3E0FB2274F71201F4EAFCEBFDE99E
:10CFF000F874091205D412CFDDE860111204A68C72
:10D00000828D83F0E9240109E43AFAD8EF7F010226
:10D01000032974F61201F4751800751900751A00C9
:10D020008A1B8B1CEA90620BF08A088B09740478C7
:10D0300008120582E508906207F08A088B097409D6
:10D040007808120582E508543E906209F002C60A8B
:10D0500074F61201F4E59DA2E650FA906206E0F93A
:10D06000A2E25034AA1BEA90620BF0F508851C0975
:10D0700074047808120582E508906207F08A088532
:10D080001C0974097808120582E508543E9062096B
:10D09000F0906201E0D2E0F0E9781846F690620282
:10D0A000E0F5087509007404780812053D7818E564
:10D0B0000846F608E50946F6906204E0F5087509A9
:10D0C000007409780812053D7819E50946F6E9A2C9
:10D0D000E05003751A017406596003751A00E58B58
:10D0E000A2E55006758BDF751A0012073B02C60ACF
:10D0F000C082C08312D63F600302D1C2A3E0F8A36E
:10D10000E0600302D1C2A3E064027002A3E0600306
:10D1100002D1C290031CE02480600914604C1460AA
:10D120005902D1C2E8600302D1C2900316E0900315
:10D130002460077401F0A3E48003E4F0A3F09003FB
:10D1400015E06007900324E04402F090030AE064D5
:10D150000460149003177424F0A37403F0A3E4F0A4
:10D16000A3740212D745F002CBE0900303E06404FD
:10D170007050900324E4F0A380D0E8547FFA900329
:10D1800003E06404703CEAC39406503674032AF545
:10D1900082E43403F583E85480600EA3A3A3A3A321
:10D1A000A3A3E0640370CB800FE582240CF58250CA
:10D1B000020583E0640370BA9003247401F0A3E4D1
:10D1C000808890030A7404809D74F71201F4E9FECC
:10D1D00090032212D642600302D2AB900303E064B4
:10D1E00004600B90032012D642600302D2AB90037E
:10D1F0001CE0541F600914603014602002D2AB9010
:10D20000031EE064017022EE900315F060047905BE
:10D21000800279067A0012073502D2B1900320E02D
:10D22000547FFA90031EE06005790002D2B3EAC38E
:10D2300094065077EA90620EF074032AF8E43403FF
:10D24000F9900320E05480602EEE60047410800298
:10D250007440906211F0EE60047B0380027B00EB6F
:10D2600088828983A3A3A3A3A3A3A3F0EE60047978
:10D2700008802F7907802BEE60047B2080027B8062
:10D28000EB906214F0EE60047B0380027B00E824E4
:10D290000CF582E439F583EBF0EE6004790A800244
:10D2A000790912073590620EE4800590030A740430
:10D2B000F0790102D00DC082C0837900120681E9A5
:10D2C000700312072902CBE0C082C08379011206E5
:10D2D00081E9700312072F02CBE0C082C083900364
:10D2E0002012D6427015A312D642700F90031E1260
:10D2F000D3205480FAE9FBEA4B600790030A7404D8
:10D30000801AE8906200F09003036009E064027004
:10D310000C74038007E0640370037402F002CBE036
:10D3200012CB9CE82274F11201F490031EE0FAA3E0
:10D33000E0F50B1460081460101460398057120671
:10D340003312D497A37B808041790012063912D41E
:10D35000977B80E92402F9E43AFA1204A6FC191931
:10D36000E0FAA3E92403F9E43AFA1204A6F9ECA3DB
:10D37000F0A3E9801CEAF9120645900317EAF0A32E
:10D38000EBF0A3E412D4A6A37B001204A6A3F0A39F
:10D39000E4F002D458900317E4F0A3F0A3F0750E64
:10D3A00000900320E0F50CA3E0F50D90035AE0FC9B
:10D3B000A3E0FD02D436850E0875090074037808D1
:10D3C00012053DEC2508F8ED3509F988828983E4DA
:10D3D00093650B705FA3E493C0E0EAFED0E06E704B
:10D3E0005388828983A3A3E493AE0D6E704688822E
:10D3F0008983A3A3A3E493AE0C6E703888828983DB
:10D40000A3A3A3A3E493F508740193F5099003176C
:10D41000E508F0A3E509F0A37480F088828983A36E
:10D42000A3A3A3A3A3E493F8740193F990031AE8C8
:10D43000F0A3E9F0050E90035C12D320C39CF5081D
:10D44000E99DF50974037808120582C3E50E950875
:10D45000E49509500302D3B6900317E0FCA3E0FD66
:10D46000A3E0FEEC4D4E90030A700474048022E0A9
:10D470006404601E90032212CFE012CB95C3EA9899
:10D48000EB99500890031AEAF0A3EBF090030A74AA
:10D4900001F07F07020329900317EAF0A3EBF0A342
:10D4A000748012D4A622F0900317E0F9A3E0FA22C8
:10D4B00074ED1201F4EA2404F508E43BF50985084B
:10D4C00082F583E493602590035E12D320FEE9FF8A
:10D4D0008007EE2404FE50010F8E828F83E493F8C0
:10D4E000740193F9EA687002EB6970E6750B0080CD
:10D4F0003F9062147490F0741012D6047003750A91
:10D50000408E828F83A3A3A3E493550E6006E50AA1
:10D51000D2E0F50AE50A906215F0EA906213F0ECA9
:10D52000240CF582E43DF583E4F090620EF0050BE7
:10D53000850882850983E493F8E50BC398400302CC
:10D54000D5FF7A00790512062D8A0C8B0DEA450D60
:10D5500060DCEA2402F8E4350DF98810891188822C
:10D56000F583E493540FF51290620EF0750A008A69
:10D57000828B83A3A3A3A3E4932407F50EA3E493D0
:10D580003400F50F7403780E120582AA0EA81274E7
:10D590000328F8E43403F9E8FCE9FD750E01750F82
:10D5A00000E512780E12053DE50EF50EE50C24039C
:10D5B000F8E4350DF9851082851183E493A2E740E4
:10D5C0000302D4F19062117448F0740812D604700A
:10D5D00003750A408E828F83A3A3E493550E6006E1
:10D5E000E50AD2E0F50AE50A906212F0EA906210CC
:10D5F000F08C828D83A3A3A3A3A3A3A302D5287F2A
:10D600000B020329F088828983E493540364012286
:10D61000C082C08312D63F7010A312D642700AA3F4
:10D62000E064017002A3E0600790030A7404800CB8
:10D630009003177404F0A3740312D73B02CBDF905E
:10D64000031E12CB9CE8492274F41201F4900303E8
:10D65000E06402601490032012D642700CA312D62C
:10D6600042700690031FE0600890030A7404F08083
:10D670007D7A00790112073590031EE0FE605A7A28
:10D6800000F91206398A088B09EA450960439003BC
:10D69000037404F0EEA3F07E00850882850983A35D
:10D6A000A3A3A3E493F8EEC398503CEEF8740528C6
:10D6B000F582E43403F583E4F07A00790412062D50
:10D6C0008A828B83A3A3A3E49370EE12069F0E803D
:10D6D000C890030A7404F0800E900304F0900303D2
:10D6E0007403F0F912065D7A00790212073502CC54
:10D6F0006274F51201F4900303E06404701990035E
:10D700001CE06481701112D63F700C900322E0641B
:10D71000017002A3E0600790030A7404801A90036A
:10D7200020E02405F508A3E03403F509900317E58C
:10D7300008F0A3E50912D73B02CF77F0A3E4F0A3EA
:10D740000412D74522F0A3E4F090030A042274F4F3
:10D750001201F4900303E06404706090031CE06421
:10D7600001705890032212D6427050900320E0FEC0
:10D7700090031EE0FBEEFA900304E0F912063F8AE4
:10D78000088B09EA45096033EEFA790312073590F0
:10D79000031EE0C0E0900320E02405F8A3E034037A
:10D7A000F988828983D0E0F0AA08AB0912069F901D
:10D7B0000320E0FA7904120735800690030A740406
:10D7C000F002CC6274F61201F412E0B6F50895E0AE
:10D7D000F5097402780812053DE508240CF8E509FE
:10D7E0003400F990159CE8F0A3E9F0E8FCE9FD901D
:10D7F0000382ECF0A3ED12E63EF0750804F509781B
:10D80000081204F07C347DC17A777B1512E06C122B
:10D81000047075082078081204F012E06412047095
:10D8200075080075090178081204F07CA07D137A50
:10D83000007B0790C159E0F91205E57402120470EB
:10D8400090149FE0F4700B78081204F012E19D121E
:10D8500004701206F312064B7AFF7BFF12066F026A
:10D86000DEBB74F51201F48003120675A2E840F9DC
:10D8700090620E7404F0A818E8540460097818E661
:10D8800054FBF6120651A818E8541060097818E6FF
:10D8900054EFF6120657906214E0A2E0500312060D
:10D8A000FF906211E0A2E0403A900327E0700D90F3
:10D8B0000326E06402702C7403F0802F640270234E
:10D8C000E4F0750877750915F50A78081204EC7903
:10D8D0000D7A287B6212066974031204709062113B
:10D8E0007401F0900326E0640370047901800279EA
:10D8F000007F03020329C082C08375AC00759A00C3
:10D9000012E19490620FE4F0E0A2E740FB02E652DD
:10D9100074F61201F475080475090078081204F011
:10D920007C487D157A7B7B1512E06C12047090C1E7
:10D93000541205C890157F1205BC901583E4F0754C
:10D94000081478081204F07C007D007A637B1512BD
:10D95000E1A5120470901563E05480F8A3E0F9E8A3
:10D960004470901563F0A3E9F090156C740AF09080
:10D97000154C1205C89015941205BC1206D5E9F88D
:10D98000901553E0642A70051207058076900327EE
:10D990007402F01468600E9015941205C890157FFB
:10D9A0001205BC805E901553E06428704A906211A5
:10D9B000E0A2E040F812E48412053D12E46C9015F8
:10D9C00035F0E9901534F075D608E5D6A2E350FAA3
:10D9D00075D7089015A1E014F0700512E4B7602324
:10D9E0009015A0E004F0642070C3E4F090159FE06F
:10D9F00004F01206E180B6901594E0600690621182
:10DA00007401F002DEC374F51201F474E71204C06D
:10DA10007F01901553E0604B24FD607024F170038A
:10DA200002DAC324F8700302DB0A14700302DB3746
:10DA300024FE700302DC4814700302DB4924FB70EF
:10DA40000302DB5524FE700302DBB824FD700302E1
:10DA5000DBF524FE700302DBF5248A700302DBFA97
:10DA600002DC3B900326E0600D901583EFF09003FD
:10DA70002604F002DC48900328E0700302DC48141E
:10DA8000F0600302DC481206ED02DC4890154CE021
:10DA9000FAA3E0FBC3EA9415EB940040027A1475F4
:10DAA0000863750915750A0078081204ECEAF97A1A
:10DAB000287B621206697403120470901563E054A7
:10DAC0007F80AF90154CE0F8A3E0F9C3E89425E916
:10DAD00094004017E824DCF8E934FFF9E8FAE9FBA0
:10DAE00090157FEAF0A3EB12E63EF0750824750965
:10DAF000C0750A0078081204EC79247A287B621237
:10DB00000669740312047002DC4874091205D4AC6F
:10DB100082AD837583C1758248740412041274093E
:10DB20001205D4A982AA8389088A09750A0078088F
:10DB30001204EC790480C4901557E064026003027B
:10DB4000DC48900326EF02DA72A3E0700302DC489F
:10DB500090158380F0740D1205D4AC82AD8375836B
:10DB6000C175820C740C12041290159DE0C0E07413
:10DB7000131205D4D0E0F090159CE0C0E0741412AC
:10DB800005D4D0E012DC52940DED940040027C0CE0
:10DB9000906215E0D2E7F0906212E0D2E7F0740DE7
:10DBA0001205D4A982AA8389088A09750A0078080F
:10DBB0001204ECECF902DAFBEF1205D4AC82AD836F
:10DBC0007583C1758218740812041290159DE0C007
:10DBD000E074031205D4D0E0F090159CE0C0E0742E
:10DBE000041205D4D0E012DC529409ED94004002F6
:10DBF0007C08EF80AB12070B804E90154CE0FAA327
:10DC0000E0FB851482851583AC82AD837583C17575
:10DC1000825AEF120412C3EA9402EB940040027A93
:10DC200001851482851583AC82AD838C088D0975BE
:10DC30000A0078081204ECEA02DBB4901583EF12B4
:10DC4000E5EC742012E5E31FEFF974191204700279
:10DC5000D8F1F090154CE0FCA3E0FDC3EC2274F683
:10DC60001201F490159FE06480702F900D5E748017
:10DC7000F0900D627401F0900D667404F090159CA4
:10DC8000E0900D6AF090159DE0900D6BF0900D9E68
:10DC90007455F0A374AAF002DDE9E0648160030228
:10DCA000DDE975083E75090078081204F07C627D94
:10DCB000037AA07B0B12E06C120470900D9E7455D9
:10DCC000F0A374AAF0A374F8F0A374FFF0A3F0908B
:10DCD000151EE0900DA37021E4F0A3F0F50875097E
:10DCE0000178081204F07CA07D137AA07B1112E069
:10DCF0006C12047090129F803974FFF0A3740FF0BF
:10DD000075082078081204F07C047D157AA07B1138
:10DD100012E06C120470750800750901780812048D
:10DD2000F07CA07D137AC07B1112E06C120470901D
:10DD300012BFE4F090149FE0700302DDD012E0AD5A
:10DD40002404FEE93400FF7A047B007C047D028019
:10DD5000227AFF7B0FEAC0E012DDECD0E012DDF7A3
:10DD6000EB540FC0E012DDECD0E0F0EA24010AEB46
:10DD70003400FBC3EE9AEF9B4056EE6A7002EF6BE5
:10DD800070047AFF7B0FECF8EDF9E824010CE9341C
:10DD900000FDEAC454F0F50874A028F582740B392C
:10DDA000F583E04508F08A088B09740478081205A9
:10DDB0008212DDECE50812DDF7EA24010AEB3400FB
:10DDC000FBEE6A7002EF6B6088C3EE9AEF9B5085A2
:10DDD00075080075090278081204F07CA07D0D7AA0
:10DDE000A07B0F12E06C12047002DEC374A02CF54D
:10DDF00082740B3DF58322F0EC24010CED3400FD20
:10DE00002274F61201F474FF1204C090159FE0C34F
:10DE10009480503290149FE0602C90159FE054073E
:10DE2000F87401B800028004C333D8FCC0E0E013EA
:10DE30001313541FF874E828F582741412E47FD089
:10DE4000E0F8E0586037851482851583E4F0E582B8
:10DE500090153DF0851583E58390153CF0901543B2
:10DE60007412F075D610E5D6A2E450FA75D710906A
:10DE7000159FE0C39480403E1206DB8039E5C7FA67
:10DE800090153D12E4A512053D2400E5093480906B
:10DE9000153CF090154312E49275D610E5D6A2E435
:10DEA00050FA75D710E5D6A2E440FA8AC77AA07B6B
:10DEB0000BE0F91205F7740102E05E53F4FED29014
:10DEC00043FE017F0202032974F61201F474FC126E
:10DED00004C09015A0E0C39419500302E019851402
:10DEE00082851583AC82AD837583C175824C7404C1
:10DEF0001204127EC07F118008EE2420FEEF340051
:10DF0000FF75082075090078081204F07C8C7DC02C
:10DF1000EEFAEF12E08E1204708B09EA450970D90F
:10DF2000EE24E0FEEF34FFFF750803750900780862
:10DF30001204F07C507DC1EE240812E086120470B9
:10DF40008B09EA45097508047509007808705512AF
:10DF500004F074021205D412E07F1204708B09EAF7
:10DF60004509900329700A7404F090151EE402E03C
:10DF700055740212E478740212E0957464F0EE2491
:10DF80001D12E075EE241E12E07512E07275082075
:10DF9000F50978081204F0EEFCEFFD12E0681204B7
:10DFA0007002E0561204F074021205D412E07F12DF
:10DFB00004708B09EA4509700B9003297403F090F3
:10DFC000149F80A912E0AD2401F508E93400F50999
:10DFD0007403780812053D9003290412E478740351
:10DFE00012E095E4F0EE241D12E47CE508F0EE2446
:10DFF0001E12E47CE509F012E072F508750901785B
:10E00000081204F07CC07D117AA07B1312E06C1220
:10E01000047090149F7401803CE0C39411403790C9
:10E020000FA3E0701B90151EE06015E4F09003292B
:10E030007404F090149FE0701D790112061580168B
:10E04000900FA4E054F0700E90149FE06008E4F08C
:10E050009003297403F09003287408F074041204E8
:10E060007002DEC37C6C7DC07A047B151207477496
:10E070000222EE241FF582EF3400F583E4F022AC97
:10E0800082AD83EE241CFAEF340012E08E22FB12E4
:10E090000741740222F0EE241BF582EF3400F58371
:10E0A000E4F0EE241CF582EF3400F5832212E0B692
:10E0B000F895E0F9E82290C158E0F890C159E0FAEB
:10E0C000E8C39A2274F61201F412E194900329E055
:10E0D00014600A24FE604E14607102E185901503FD
:10E0E000E0600302E1851205F1E9700302E1857544
:10E0F000084075090078081204F07CA07D1390C1D7
:10E1000059E0F5087409780812053D24C0FAE509BC
:10E110003401FB1205EB7402120470C2AF75C9AB77
:10E1200075C95B80FE901503E0700479008008904B
:10E13000151EE060167901120615750800750901B3
:10E1400078081204F012E19D1204709014A2E4F019
:10E15000A3F090149FE0702D90151EE070277508B5
:10E160002075090078081204F012E064120470753A
:10E17000086478081204F07CFF7D007AA07B1412FA
:10E18000E1A5120470900329E4F07AD07B0712060F
:10E19000F902DEBB53F4FEC29043FE01227C007DF7
:10E1A000007AA07B1312074D740222C082C08374D0
:10E1B00015F5D375D2249015257428F09015247484
:10E1C00062F090152812E20C7412F090152F74A0D2
:10E1D000F0740390152EF090153012E63C7420F088
:10E1E0009015377428F09015367462F09015381237
:10E1F000E20C7442F090153F74A0F0740B90153E41
:10E20000F090154012E63C742002E651E4F0A3744D
:10E2100040F0A37420F0A322EBC313FBEA13FAEA45
:10E22000F8EBF9E824FFFAE934FFFBE849601A004B
:10E2300000000000000000000000000000000000DE
:10E240000000000000000080D602045874F612019D
:10E25000F4906216E0FA741F6A705578447915904C
:10E260006228E088828983F0A3A882A9831AEA70D1
:10E27000EE75080475090078081204F07C307DC141
:10E280007A447B1512E08F1204708B09EA450970FD
:10E290002A901551E07024901550E060046480705D
:10E2A0001A901552E014C3941050101206CF800B30
:10E2B0009062147410F0E0A2E440FB906214E4F069
:10E2C00002DEC374F61201F4906214E4F09062145A
:10E2D000E0A2E0400302E45312E48412053D12E49C
:10E2E0006C901527F0E9901526F075D602E5D6A2B8
:10E2F000E150FA75D702906214E4F09015A1E01491
:10E30000F0700B12E4B770069003277402F09015BA
:10E31000A0E004F06420600812E4CB600302E45340
:10E3200090159FE06481700C1206E790159FE00441
:10E33000F002E44E900329E06402702F90159FE0F4
:10E3400064826006E0C3948050217AA07B0B1205A2
:10E35000FDE9600302E44E75082075090078081293
:10E3600004F012E06412047002E44E90159FE0C3C2
:10E370009480400302E44E901503E0600302E44EF3
:10E380007AA07B0B90159FE0F91205F7E970051252
:10E39000E45E80FE75080075090278081204F07CBE
:10E3A000A07D0B90159FE0F50875090074097808A9
:10E3B00012053DFAAB091205EB7402120470E5C7B1
:10E3C000FA90152D12E4A512053D2400E5093480CC
:10E3D00090152CF090153312E49275D604E5D6A270
:10E3E000E250FA75D704E5D6A2E240FA8AC7750969
:10E3F0000878081204F07CA07D037AA07B0B12E061
:10E400008F1204708B09EA4509600512E45E80FEF4
:10E4100012E4CB603990159FE004F0C39478400576
:10E4200012E45E80FEE05407F87401B80002800434
:10E43000C333D8FCC0E0E0131313541FF874D8287A
:10E44000F582741412E47FD0E0F8E05860C79015AC
:10E45000A0E4F012E4CB600302E2CD02DEC3790156
:10E46000120615C2AF75C9AB75C95B2274A0250829
:10E47000F8740B3509F9E822F0EE241AF582EF342E
:10E4800000F583229015A0E0F50875090074067860
:10E4900008227452F090159FE0C4540FF8E5C75459
:10E4A000F848F5C722E4F090159FE0540FF5087581
:10E4B0000900740B7808227408F090159AE024FF84
:10E4C000F0F8A3E034FFF0F9E8492290159AE0F85B
:10E4D000A3E0F9E8492274F61201F474FC1204C0B6
:10E4E00090155BE0FA90155AE0F9EA90159AF0A3BE
:10E4F000E9F0901555E0C0E074031205D4D0E0F0C7
:10E50000901556E0C0E074021205D4D0E0F09015EA
:10E5100057E0C0E074011205D4D0E0F0901558E047
:10E52000851482851583F074021205D412E4CE702E
:10E5300028851482851583E0F8A3E0F990159AE008
:10E5400028FAA3E039FB90159CE0240CF8A3E034F2
:10E5500000F9C3EA98EB99401C901583740112E509
:10E56000EC7421F0A3E412E5E39015941205C89031
:10E57000157F1205BC9015A17408F08514828515CD
:10E5800083E0FAA3E0FBC3EA940CEB94004008EAB2
:10E5900024F4FAEB34FFFB8A088B09740278081222
:10E5A0000582A808E8333354FCF9EAC399333333BE
:10E5B00054F89015A0F0851482851583C3E0940C5F
:10E5C000A3E0940050047480800490C159E028F8BE
:10E5D000E890159FF0901553E0642870031206E14F
:10E5E00002E05CF0901563E04480F022F090156644
:10E5F000E054F0F8A3E0F9E84405901566F0A3E9CB
:10E60000F0901571228041C082C08390031DE064A8
:10E61000FE702190030AE07017900317745BF0A35B
:10E6200074C112E63E04F0A3E4F090030A048009EA
:10E630006401600690030A7404F080167408F0A365
:10E64000E4F0A32280028000C082C08390030A7499
:10E6500004F0D083D08202045880ED0204580204F2
:10E6600058C082C083851482851583E0F8A3E0F941
:10E67000E84960128A828B83ECF0A3E824FF18E952
:10E6800034FFF94870F2D083D082020458FFFFFFB4
:10E69000FFFFFFFFFFFFFFFFFFFFFFFFFFFFFFFF8A
:10E6A000FFFFFFFFFFFFFFFFFFFFFFFFFFFFFFFF7A
:10E6B000FFFFFFFFFFFFFFFFFFFFFFFFFFFFFFFF6A
:10E6C000FFFFFFFFFFFFFFFFFFFFFFFFFFFFFFFF5A
:10E6D000FFFFFFFFFFFFFFFFFFFFFFFFFFFFFFFF4A
:10E6E000FFFFFFFFFFFFFFFFFFFFFFFFFFFFFFFF3A
:10E6F000FFFFFFFFFFFFFFFFFFFFFFFFFFFFFFFF2A
:10E70000FFFFFFFFFFFFFFFFFFFFFFFFFFFFFFFF19
:10E71000FFFFFFFFFFFFFFFFFFFFFFFFFFFFFFFF09
:10E72000FFFFFFFFFFFFFFFFFFFFFFFFFFFFFFFFF9
:10E73000FFFFFFFFFFFFFFFFFFFFFFFFFFFFFFFFE9
:10E74000FFFFFFFFFFFFFFFFFFFFFFFFFFFFFFFFD9
:10E75000FFFFFFFFFFFFFFFFFFFFFFFFFFFFFFFFC9
:10E76000FFFFFFFFFFFFFFFFFFFFFFFFFFFFFFFFB9
:10E77000FFFFFFFFFFFFFFFFFFFFFFFFFFFFFFFFA9
:10E78000FFFFFFFFFFFFFFFFFFFFFFFFFFFFFFFF99
:10E79000FFFFFFFFFFFFFFFFFFFFFFFFFFFFFFFF89
:10E7A000FFFFFFFFFFFFFFFFFFFFFFFFFFFFFFFF79
:10E7B000FFFFFFFFFFFFFFFFFFFFFFFFFFFFFFFF69
:10E7C000FFFFFFFFFFFFFFFFFFFFFFFFFFFFFFFF59
:10E7D000FFFFFFFFFFFFFFFFFFFFFFFFFFFFFFFF49
:10E7E000FFFFFFFFFFFFFFFFFFFFFFFFFFFFFFFF39
:10E7F000FFFFFFFFFFFFFFFFFFFFFFFFFFFFFFFF29
:0400000500000550A2
:00000001FF
