:020000040000FA
:100000000205D0020823FFFFFFFFFF02082BFFFFBE
:10001000FFFFFF020833FFFFFFFFFF02083BFFFF68
:10002000FFFFFF020843FFFFFFFFFF02084BFFFF38
:10003000FFFFFF020853FFFFFFFFFF02085BFFFF08
:10004000FFFFFF020863FFFFFFFFFF02086BFFFFD8
:10005000FFFFFF020873FFFFFFFFFF02087BFFFFA8
:10006000FFFFFF020883FFFFFFFFFF02088BFFFF78
:10007000FFFFFF020893FFFFFFFFFF02089BFFFF48
:10008000FFFFFF0208A3FFFFFFFFFF0208AB010015
:1000900000035F005F003000580000000000000017
:1000A0000000000000000000000000000000000050
:1000B000000000000000000000002F046104610443
:1000C000610461046504EB3C904D53444F53352E5D
:1000D0003000020401000210000000F801000000DE
:1000E00000000400000004000000000029000000DF
:1000F000004E4F204E414D45202020204641543196
:100100003220202074F71202E043C707E59D5418FF
:100110006410704275080475090078081205857C22
:10012000A27D157A9C7B0679011206657402120481
:10013000F09015A2E0F8A3E0F9A3E0687003A3E053
:100140006970139015A2E0F47003A3E0F46007E86F
:1001500049600312068F781075B60FE5B4A2E75018
:10016000FAE5BBC3944A40F018E870EC75A8007536
:10017000B800759A0075C6809062707408F07901B5
:100180007F020203EF080808EAC0E0EBC0E086F057
:10019000E7A4FA180986F0E7A42AFA180986F0E716
:1001A000A42AFA180986F0E7A42AFA1986F0E7A427
:1001B000FBE5F02AFA190886F0E7A42BFBE5F03AF4
:1001C000FA190886F0E7A42BFBE5F03AFA181809AB
:1001D00086F0E7A4C5F02BFBE43AFA1908E7C5F06E
:1001E000C6A426F6E5F03BFBE43AFA1886F0E7A44D
:1001F000F6E5F00826F6E43B08F6E43A08F6D0E027
:10020000FBD0E0FA22E4CFC0E0E4CEC0E0E4CDC011
:10021000E0E4CCC0E075F020E626F608E633F60808
:10022000E633F608E633F6181818EC33FCED33FD28
:10023000EE33FEEF33FFC3EC9709ED9709EE970914
:10024000EF97191919400FFFEC97FC09ED97FD097D
:10025000EE97FE191906D5F0BFECF709EDF709EE98
:10026000F709EFF7191919D0E0FCD0E0FDD0E0FE56
:10027000D0E0FF222514C582C0E0E51534FFC58318
:10028000C0E0E514C3958224F810AF088583158576
:1002900082148008858315858214D2AFCEF0A3E541
:1002A00020F0A37808E608F0A3DEFAEFF0A3E581DA
:1002B00024FAF8E608F0A3E608F0A3E608F0A3089D
:1002C00008E608F0A3E608F0A315811581D0E0FE4A
:1002D000D0E0F8158115811581E8C0E0EEC0E0227C
:1002E0002514C582C0E0E51534FFC583C0E0E514E0
:1002F000C3958224F910AF08858315858214800880
:10030000858315858214D2AFCEF0A3E520F0A378C3
:1003100008E608F0A3DEFAEFF0A3E58124FBF8E697
:1003200008F0A3E608F0A30808E608F0A3E608F042
:10033000A315811581D0E0FED0E0F815811581E884
:10034000C0E0EEC0E022120104B90003020393E40E
:1003500079167807B800028004F709D8FCE4900306
:1003600000782D79028002F0A3D8FCD9FA7A2C7B90
:100370000490008E787779018015E493A3AD82AE66
:10038000838A828B83F0A3AA82AB838D828E83D8EB
:10039000E9D9E775821D7583CB74071204D2758283
:1003A0005E75830674001204D2851583851482E07D
:1003B000A3FEE0A3F5207808E0A3F608DFFAE0A3A7
:1003C000FFE0A3C0E0E0A3C0E0E0A3C0E0E0A3C082
:1003D000E0E0A3C0E010AF08858214858315800893
:1003E000858214858315D2AFD083D0820204D8854C
:1003F0001583851482E0A3FEE0A3F5207808E0A32E
:10040000F608DFFAE0A3FFE0A3C0E0E0A3C0E0E06D
:10041000A3C0E0E0A3C0E010AF0885821485831577
:100420008008858214858315D2AFD083D0822212B2
:10043000010002000000205104A816090001020377
:100440000109022000010100800F090400000208D8
:100450000650000705840240000007050402400022
:10046000004A04102074038000CCC0E0EDC0E0E539
:1004700014C39CCCAD1550011D10AF068C148D1506
:1004800080068C148D15D2AF120492D0E0FDD0E01E
:10049000FC22CAC0E0E0A3C582CCC582C583CDC51D
:1004A00083F0A3C582CCC582C583CDC583DAE6D0EF
:1004B000E0CA227009080808226016181818C6C376
:1004C00033C608C633C608C633C608C633C6D5E029
:1004D000EA22C09FF59FE473D09F22D083D082C0D0
:1004E0009FE493C0E0740193C0E0740293F59F22EF
:1004F00000C0D0251410AF08F514500C0515800865
:10050000F51450020515D2AFD0D0222514F5821073
:10051000AF08F514400C15158008F51440021515A8
:10052000D2AF85158322BB0102E722C082C0838936
:10053000828A83BB0003E08002E493D083D08222CE
:10054000251410AF08F514400C15158008F514405B
:10055000021515D2AF22BB000EC082C0838A8389E8
:1005600082F0D083D08222BB0101F722E7667010AF
:100570000809E766700A0809E76670040809E76673
:10058000227403800474028000C0E0F40412050B9E
:10059000D0E012062F22C3E096F008A3E096F00800
:1005A000A3E096F008A3E096F022E026F608A3E088
:1005B00036F608A3E036F608A3E036F622700422E9
:1005C000600D18C6C333C608C633C6D5E0F418227A
:1005D00075D00075813F751400751503759F000275
:1005E00003462514FAE43515FB222514FCE43515E1
:1005F000FD22C3E09608A3E09608A3E09608A3E0D6
:100600009622600C08C6C313C618C613C6D5E0F4FC
:1006100022E0F608A3E0F608A3E0F608A3E0F6223D
:10062000E6F008A3E6F008A3E6F008A3E6F022CA85
:10063000C0E0E6F0A308DAFAD0E0FA22EAF0A3EB91
:10064000F0A3ECF0A3EDF022E0FAA3E0FBA3E0FCC2
:10065000A3E0FD222514F582E43515F58322000080
:100660000080FBE4731204DB60C1071204DBE0C10D
:10067000071204DB98C2071204DB2CC4071204DB48
:100680004BC5071204DB0AC6071204DB25C7071295
:1006900004DBD3C8071204DBE0C8071204DB2DC952
:1006A000071204DB4DC9071204DB0CCA071204DB76
:1006B00004CB071204DB47CB071204DBB4CB0712D1
:1006C00004DBD3CB071204DB18CC071204DB53CCBA
:1006D000071204DB02CD071204DB3BCD071204DB5B
:1006E0005ACD071204DB90CF071204DBAACF071202
:1006F00004DBDFCF071204DB0BD0071204DB49D089
:10070000071204DBE9D0071204DBC2D1071204DBB5
:10071000AFD2071204DBC1D2071204DBD3D2071217
:1007200004DB19D3071204DBA9D4071204DB09D6B2
:10073000071204DB41D6071204DBEAD6071204DBFA
:1007400047D7071204DBBDD7071204DB5BD80712BB
:1007500004DBEFD8071204DB09D9071204DBFFD949
:10076000071204DB57DC071204DBFADD071204DB97
:10077000C1DE071204DBBDE0071204DBA4E10712AF
:1007800004DB11E2071204DB45E2071204DBBCE2E2
:10079000071204DBCFE4071204DBFEE5071204DBDB
:1007A00000E6071204DB3DE6071204DB3FE6071212
:1007B00004DB41E6071204DB52E6071204DB54E6D1
:1007C000071204DB57E6071204DB5AE6071204DBC4
:1007D000A6E6071204DBECE607FFFFFFFFFFFFFFC3
:1007E000FFFFFFFFFFFFFFFFFFFFFFFFFFFFFFFF19
:1007F000FFFFFFFFFFFFFFFFFFFFFFFFFFFFFFFF09
:020000040003F7
:10C00000240354004900200043004300320035005F
:10C0100033003100200055005300420020004D0045
:10C0200053004400008002021F00000047656E6557
:10C030007269632055534220466C617368204469DD
:10C04000736B2020302E30302403540065007800BC
:10C0500061007300200049006E00730074007200DC
:10C0600075006D0065006E00740073004445464124
:10C07000554C5420434647200015095A473F473F37
:10C0800000008656473F02006400000000000000E8
:10C0900000000000000000000000000000000000A0
:10C0A000000000000000000000000000FFFFFFFF94
:10C0B000FFFFFFFFFFFFFFFFFFFFFFFFFFFFFFFF90
:10C0C000FFFFFFFFFFFFFFFFFFFFFFFF30313233B6
:10C0D0003435363738394142434445460100000083
:10C0E000000000000000000000000001FFFFFFFF53
:10C0F000FFFFFFFFFFFFFFFFFFFFFFFF59305470FF
:10C10000614675725159674C492166350000000837
:10C110000000000002000200FFFFFFFFFFFFFFFF23
:10C120000000000000000200FFFFFFFF00300000E1
:10C130007D000000F0FFFFFF55534243555342532B
:10C140000080020004030904FFFFFFFF030000005A
:10C150000000000043464700000000007601000098
:10C1600074F5120274890A740F550AF508750900EE
:10C17000740B78081205BDEA2400F8EB3480F9E866
:10C180002400E93509F985C709A2AFE433F508C2EF
:10C19000AFE50AC4540FFAE5C754F84AF5C7740B63
:10C1A00012065412CFD9801C88828983E08C828D3C
:10C1B00083F088828983A3A882A9838C828D83A33C
:10C1C000AC82AD83EAFEEBFFEE24FF1AEF34FFFBF7
:10C1D000EE4F70D48509C7E508A2E092AF02CF64A4
:10C1E00074F6120274EAFEEBFF750800900402E098
:10C1F0007064ED901686F0ECA3F0A37462F0A37463
:10C2000073F0A3E0541FF0740A12065412C71DE520
:10C2100008333354FC90168BF0740678081206022B
:10C22000E50890168AF090168C7412F0A37442F010
:10C2300075D1FE75D601EE906271F0EFA3F09062B9
:10C2400070E0D2E1F0E0A2E740FB02C605EC24205A
:10C25000FC50010D05088C828D83E064E560EE756D
:10C260000900740578081205BD74FFC39508F50828
:10C27000E49509F50978081205857A007B03120711
:10C28000CD74021204F09003FF7401F07403901651
:10C2900086F0A3740002C1F974F612027474CF120E
:10C2A00005407F007508208F097808120585740302
:10C2B0001205EA7A007B0079011206657402120405
:10C2C000F01206A19004007401F07E01EE13131326
:10C2D000541FF874DA28F582E43415F583E0C0E0E1
:10C2E00074075EF8D0E0B800028004C313D8FCA243
:10C2F000E050710F75080075090878081205857CF3
:10C30000A27D0C7A007B00EEF9120665740212041D
:10C31000F07800790074016F7010E849700C7810A3
:10C320007900900CB774FFF080137415120654E076
:10C330006F700A74F0687003740769603143B30169
:10C340007A1012C41F7001091AEA70F6E5B3A2E36D
:10C3500050FAC3E9940840BD7415120654E0F8EF92
:10C36000C398500A0EEEC39477500302C2CC75B343
:10C3700001000000000000000078F0790712C41FDF
:10C38000700109C3E9940840F4851482851583740B
:10C390000FF0E0F874FF28F00470F77A00E5B2C0FF
:10C3A000E0EAF8742112065412CCE8D0E0F00AEA70
:10C3B000C3941040E87416120654E06052E4F0751D
:10C3C0000810F509780812058574231205EA74032C
:10C3D0001205E21207CD74021204F07508087808FD
:10C3E00012058574031205EA7A007B0212066B744B
:10C3F000021204F0750820780812058574031205EE
:10C40000EA7A007B00790112066574021204F0904A
:10C4100004017401F0790074311204F002C605744D
:10C42000A228F582740C12C54408E82274F41202A2
:10C430007474DF1205408908EAFEEBFF900401E006
:10C44000700302C53A90C0DC74111205EA74101230
:10C450000492EEF8EFF975B3370000000000000019
:10C46000007C00ECFA7411120654E5822AF582E48D
:10C470003583F583E0F5B10CECC3941040E5E5B3EA
:10C48000A2E350FA7D8075B3310000000000000087
:10C49000007C04750900AA09E82A12C5410509E5CE
:10C4A00009C3940440F0851482851583740FF0E06D
:10C4B000FA74FF2AF00470F7750900E5B2C0E0AA2B
:10C4C00009E82AF582E439F583D0E0F00509E509A9
:10C4D000C3940440E6E82404F85001091CEC70B34E
:10C4E0001DED70A274016508705090C0EC740112CB
:10C4F00005EA7410120492750A10F50B780A1205F9
:10C500008574031205EAEEFAEFFB1207C7740212F4
:10C5100004F08B0BEA450B701DEE2414F582E43F0A
:10C52000F583E06011C39477500CEE2415F582E496
:10C530003FF583E07004790080027901742102CC18
:10C540004BF582E439F583E0F5B12274F6120274FA
:10C5500074FC120540EAFEEBFF901605E060717571
:10C5600008207509007808120585EE2408FCE43FD0
:10C57000FD7AAA7B151207C774021204F08B09EA30
:10C580004509604C901602E0F9700F79011206958A
:10C59000C2AF75C9AB75C95B80FE78018004E8C382
:10C5A00033F8E85960F8E068F090C128AC14AD1594
:10C5B000740412049212C8B712058574021205EAB7
:10C5C0007ABF7B0312066B74021204F07900802B91
:10C5D000901605E4F0750858F5097808120585EEFF
:10C5E0002404FCE43FFD7AA67B151207CD740212E9
:10C5F00004F09015A4E4F0A3F07901740402C419C6
:10C60000758B00C2E87F020203A974EC12027474F5
:10C61000FC1205401206AD120749E96401700302DD
:10C62000C6EF9015A812D63B60EAE5958514828581
:10C630001583F0659570F3E596C0E0740112065419
:10C64000D0E0F0E597C0E07402120654D0E0F07438
:10C6500003120654E4F0901692780812061185141D
:10C660008285158378081205967403120654E4F047
:10C6700090042C12C71D3395E0F50AF50B85148242
:10C68000851583780C12061190C14078101206119E
:10C69000780C7910120205780C790812056C700F6D
:10C6A00090042CE02401F0A3E03400F06380408586
:10C6B0001482851583780812061190168E78081258
:10C6C00005F25008900400E07002C29012C8C970D0
:10C6D00003A3E069600302C6149015A2E0F470039E
:10C6E000A3E0F4700302C614E849701902C61412DC
:10C6F000C8C97003A3E069701A9015A2E0F4700332
:10C70000A3E0F4600E9015A212D63B600612074F0C
:10C7100012068F74041204F07F0C0203A9E0F508DE
:10C72000A3E0F5092274F012027474DC120540755E
:10C73000086475090078081205857CA27D157A9C2D
:10C740007B06790112066574021204F075082078E0
:10C75000081205857CAC7DC07AAA7B151207C774C8
:10C76000021204F08B09EA45097005901605E4F001
:10C7700012C8C97003A3E06970659015A2E0F47057
:10C7800003A3E0F46059E84960559015FEE0F960B4
:10C790003D78018004E8C333F8E85960F8E068F0B8
:10C7A00070099015A4E4F0A3F0803490C148AC1453
:10C7B000AD15740412049212C8B7120585740212E2
:10C7C00005EA7ABE7B0312066B74021204F0901520
:10C7D000FAE0A2E040061206A7E9700312068F9065
:10C7E00015A812D63B600A74FF68700374FF697065
:10C7F0000A9015A87460F0A374EAF09015A812C707
:10C800001DE4F50AF50B90C12C780C12061178087E
:10C81000790C12018590C130780C120611780879D4
:10C820000C12020590168E7808120620E5959016D7
:10C8300092F0659570F6E596A3F0E597A3F0A3E472
:10C84000F01206AD12069B750820750900780812D3
:10C85000058574061205EA7A007B007901120665E7
:10C8600074021204F07419120654E0600C74181269
:10C870000654E0F460031206717A00EAF874A22804
:10C88000F8E43415F9E82438F582E439F583E0F466
:10C89000C0E0E82448F582E439F583D0E0F00AEA04
:10C8A000C3941040D61207437901120695742412DE
:10C8B00004F07F080203A9851482851583E068F0DF
:10C8C0007508017509007808229015A212CF8AA375
:10C8D000E06822020820C2AF75C9AB75C95B80FE53
:10C8E000C082C0837802E97027E8131313541FFA3B
:10C8F00074CA2AF582E43415F583E0C0E074075861
:10C90000FAD0E0BA00028004C313DAFCA2E0500EB1
:10C91000E8C333906272F0906270E0D2E0F008E811
:10C92000C3947740C1906272740202CBC4C082C0CB
:10C93000837582FC7583C075B3450000000000005C
:10C9400000007810E0F5B1A3D8FA02CBCC74F41251
:10C95000027474DC1205407508207509007808120D
:10C96000058574061205EA7A007B007901120665D6
:10C9700074021204F075B3570000000000000000BC
:10C98000741075B1001470FA75B351000000000006
:10C9900000000075B13A741412065412D4A4F5B113
:10C9A000E9F5B17A00EAF87404120654E58228F831
:10C9B000E43583F9E8241612C5410AEAC3940A4013
:10C9C000E47418120654E0F508E4F50AF50B740B4C
:10C9D00078081204B390C13478081205AA8514822D
:10C9E00085158378081206207402120654E0F5B10A
:10C9F0007401120654E0F5B1851482851583E0F5C3
:10CA0000B1E5B3A2E350FA742402CC4B74F61202DF
:10CA1000749015FBE0F8131313541FFA740758F9B8
:10CA2000EA70047CF3800B74016A70047CF4800269
:10CA30007CF57D70E9F87401B800028004C333D836
:10CA4000FCF8F4FB8C828D83E05BF0EA70047CFDE3
:10CA5000800B74016A70047CFE80027CFF8C82E093
:10CA60005BF0EA70047C8F800B74016A70047CF6C2
:10CA700080027CF79015FAE0A2E250267508017555
:10CA8000090074052A78081205BDE508F8E0A2E35C
:10CA9000E85005F452F7800242F78C828D83E05B08
:10CAA00080068C828D83E048F0E99016A0F0EA7051
:10CAB0000790169A7480800E74016A90169A70041A
:10CAC0007490800274A0F0A37470F090169A12CB48
:10CAD000ABE0C0E09016A0E0F8D0E0B8000280041F
:10CAE000C313D8FCA2E092F09015FAE0A2E120F086
:10CAF00001B3500B9015A4E4F0A3F0790180027902
:10CB00000002C605781075B60FE5B4A2E750FAE545
:10CB1000BBC3944E40F018E870EC0204D87416F5CC
:10CB2000D575D48653F4FC53FEFC43FE01D29043EA
:10CB3000FD4053F3BFC286120689120683C2AF7549
:10CB4000C9AB75C95B80FEC082C083E9FCEAFD7A8F
:10CB5000007B00800312CB8E90040312CF869004DA
:10CB60005AE0687003A3E0696022900404E0F58352
:10CB70008882A3E493F8EC68700B90040312CFD979
:10CB800012CB8E8007ED6870CCED60C9803E9004BA
:10CB90000312CBABE493F8900403E028F8A3E0344D
:10CBA00000F9900403E8F0A3E9F022E0F8A3E0F52F
:10CBB00083888222C082C08312CC097A0079011254
:10CBC00006B38008F0906270E0D2E0F0D083D082AB
:10CBD0000204D874F6120274E9FFEAFE12CC097A54
:10CBE0000079021206B3EA4B601CEF60108A828B58
:10CBF00083A3A3A3A3A3E4936F70E48009EEF87466
:10CC0000FF28FE0470D902C60590045812CF8A90FE
:10CC10000403E8F0A3E9F02274F4120274EAFF8B33
:10CC2000087A001206BF7A0279041206B3EA4B6052
:10CC3000188A828B83A3A3E4936F70EA8A828B8322
:10CC4000A3A3A3E493650870DD80031204F07F04BE
:10CC50000203A974F712027474F8120540E97A000D
:10CC60007B00600B14600E14601114601480717AE4
:10CC7000447BC1806B7A487BC080657A007BC08032
:10CC80005F90042EE0705590C118AC14AD15740877
:10CC90001204927C287D00EDF8851482851583129C
:10CCA000CCE8E0FFECF8742E28F8E43404F9EF1235
:10CCB000CCF388828983F0EFC412CCF3C0E0E8247F
:10CCC000FEF582E934FFF583D0E0F00D74FC2CFC16
:10CCD000EDC3940840C190042E742AF07A2E7B0490
:10CCE00074081204F002D006E58228F582E4358348
:10CCF000F58322540FFA74CC2AF582E434C0F5830C
:10CD0000E02274F61202747A0079011206BF8A8258
:10CD10008B83A3A3A3A3A3A3A3E493A2E6900418E5
:10CD2000500474018001E4F0900417E4F090620F65
:10CD30007403F0E0A2E750FB02C605C082C08390F6
:10CD400004057402F0A3E4F090040CF079031206D9
:10CD5000E375160075170002CBCC74F512027490BF
:10CD6000620EE0FEE4F0906211E0FFA2E4501D7458
:10CD700080F090040C7407F0E516451760098516DD
:10CD80008285178312066390040CE4F0EFA2E25050
:10CD90000B906211E4F090040CF0806490040CE0BD
:10CDA000F87402687043906216E0FF900419120450
:10CDB00065EFF97A207B621206E974031204F0EF42
:10CDC000F890041C12CF7912CFD3E92F12CF69A3A8
:10CDD00012D63B6004744080027448906211F0E8FF
:10CDE00049600302CF5F02CF3B7406687009851665
:10CDF0008285178312066390040CE0600302CEEA7A
:10CE0000EFA2E0400302CF5F75081E750904750AA2
:10CE100000780812058179087A207B621206E9748D
:10CE2000031204F075160075170090041EE054E01C
:10CE3000601D24E0700302CEC524E0607224C0604F
:10CE40004824E0700302CED024E0606E02CEDBA363
:10CE5000E014602624FE601D24FE600A24FC601F8E
:10CE600024FE6020807512071990040CE0640470A1
:10CE7000727860807012071380EF12070D80EA123B
:10CE8000073180E512073D80E0A3E0600E24FA60E0
:10CE90000F24FE601024FE6011804012070180C93B
:10CEA00012071F80C412072B80BF12073780BA7584
:10CEB00016A37517071207A380AF7516A975170774
:10CEC0001207A980A47516977517071207978099FE
:10CED00075169D75170712079D808E90040C7404BB
:10CEE000F0808E7840E8906211F090040CE0F874C5
:10CEF0000168705D7F0212CF83C3E89420E994003B
:10CF00005007E8F5087F0A8003750820900419127D
:10CF10000465A9087A207B621206EF74031204F0FC
:10CF2000AC0812CFD3E92C12CF69A808A312CF798D
:10CF3000EF906211F0E8C394205024E51645176085
:10CF40000985168285178312066390040CE4F0802D
:10CF50000E7405687009851682851783120663EEC4
:10CF600090620EF07F030203A9F9E43AFA900419E3
:10CF7000E9F0A3EAF0A3EBF022C3E098F0A3E09479
:10CF800000F02290041C12CF8A22E0F8A3E0F922DC
:10CF9000C082C083E990040D7805F0A3D8FC90040A
:10CFA000127805F0A3D8FC02CBCC74F7120274EA15
:10CFB000FCEBFDE9F8740912065412CFD6E86011B3
:10CFC0008C828D83E0120556E9240109E43AFAD8EF
:10CFD000EF8033900419E0F9A3E0FAA3E0FB227498
:10CFE000F7120274EAFCEBFDE9F874091206541218
:10CFF000CFD6E860111205268C828D83F0E92401DA
:10D0000009E43AFAD8EF7F010203A974F612027418
:10D01000751800751900751A008A1B8B1CEA90623E
:10D020000BF08A088B0974047808120602E5089050
:10D030006207F08A088B0974097808120602E5086D
:10D04000543E906209F002C60074F6120274E59D27
:10D05000A2E650FA906206E0F9A2E25034AA1BEA76
:10D0600090620BF0F508851C09740478081206021A
:10D07000E508906207F08A08851C0974097808128F
:10D080000602E508543E906209F0906201E0D2E0A9
:10D09000F0E9781846F6906202E0F5087509007428
:10D0A0000478081205BD7818E50846F608E5094633
:10D0B000F6906204E0F50875090074097808120515
:10D0C000BD7819E50946F6E9A2E05003751A017426
:10D0D00006596003751A00E58BA2E55006758BDFD3
:10D0E000751A001207C102C600C082C08312D6386A
:10D0F000600302D1BBA3E0F8A3E0600302D1BBA3AD
:10D10000E064027002A3E0600302D1BB90041EE061
:10D110002480600914604C14605902D1BBE860039C
:10D1200002D1BB900418E090042660077401F0A3BC
:10D13000E48003E4F0A3F0900417E0600790042675
:10D14000E04402F090040CE064046014900419744C
:10D1500026F0A37404F0A3E4F0A3740212D73EF007
:10D1600002CBCC900405E064047050900426E4F0F7
:10D17000A380D0E8547FFA900405E06404703CEA90
:10D18000C39406503674052AF582E43404F583E826
:10D190005480600EA3A3A3A3A3A3A3E0640370CB56
:10D1A000800FE582240CF58250020583E064037051
:10D1B000BA9004267401F0A3E4808890040C7404EF
:10D1C000809D74F7120274E9FE90042412D63B602D
:10D1D0000302D2A4900405E06404600B90042212C0
:10D1E000D63B600302D2A490041EE0541F600914D1
:10D1F000603014602002D2A4900420E06401702208
:10D20000EE900417F060047905800279067A001226
:10D2100007BB02D2AA900422E0547FFA900420E0D7
:10D220006005790002D2ACEAC394065077EA9062B6
:10D230000EF074052AF8E43404F9900422E05480D6
:10D24000602EEE6004741080027440906211F0EE63
:10D2500060047B0380027B00EB88828983A3A3A305
:10D26000A3A3A3A3F0EE60047908802F7907802B95
:10D27000EE60047B2080027B80EB906214F0EE6015
:10D28000047B0380027B00E8240CF582E439F583FB
:10D29000EBF0EE6004790A800279091207BB906214
:10D2A0000EE4800590040C7404F0790102D006C0ED
:10D2B00082C0837900120707E970031207AF02CB1F
:10D2C000CCC082C0837901120707E970031207B549
:10D2D00002CBCCC082C08390042212D63B7015A32F
:10D2E00012D63B700F90042012D4A45480FAE9FBAC
:10D2F000EA4B600790040C7404801AE8906200F016
:10D300009004056009E06402700C74038007E06417
:10D310000370037402F002CBCC74F1120274900417
:10D3200020E0FAA3E0F50B146008146010146039D3
:10D3300080571206B912D48BA37B808041790012EA
:10D3400006BF12D48B7B80E92402F9E43AFA120575
:10D3500026FC1919E0FAA3E92403F9E43AFA1205C4
:10D3600026F9ECA3F0A3E9801CEAF91206CB90049D
:10D3700019EAF0A3EBF0A3E412D49AA37B00120500
:10D3800026A3F0A3E4F002D44C900419E4F0A3F037
:10D39000A3F0750E00900422E0F50CA3E0F50D90CB
:10D3A000045CE0FCA3E0FD02D42A850E08750900A8
:10D3B000740378081205BDEC2508F8ED3509F988E5
:10D3C000828983E493650B705FA3E493C0E0EAFE77
:10D3D000D0E06E705388828983A3A3E493AE0D6E70
:10D3E000704688828983A3A3A3E493AE0C6E703841
:10D3F00088828983A3A3A3A3E493F508740193F51A
:10D4000009900419E508F0A3E509F0A37480F088F9
:10D41000828983A3A3A3A3A3A3E493F8740193F93C
:10D4200090041CE8F0A3E9F0050E90045E12D4A469
:10D43000C39CF508E99DF50974037808120602C338
:10D44000E50E9508E49509500302D3AA900419E06B
:10D45000FCA3E0FDA3E0FEEC4D4E90040C700474C0
:10D46000048022E06404601E90042412CFD912CFFD
:10D4700083C3EA98EB99500890041CEAF0A3EBF000
:10D4800090040C7401F07F070203A9900419EAF0DC
:10D49000A3EBF0A3748012D49A22F0900419E0F95F
:10D4A000A3E0FA2212CF8AE82274ED120274EA2471
:10D4B00004F508E43BF509850882F583E4936025CB
:10D4C00090046012D4A4FEE9FF8007EE2404FE500D
:10D4D000010F8E828F83E493F8740193F9EA6870E8
:10D4E00002EB6970E6750B00803F9062147490F057
:10D4F000741012D5FD7003750A408E828F83A3A32A
:10D50000A3E493550E6006E50AD2E0F50AE50A9019
:10D510006215F0EA906213F0EC240CF582E43DF51C
:10D5200083E4F090620EF0050B850882850983E4A0
:10D5300093F8E50BC398400302D5F87A00790512F9
:10D5400006B38A0C8B0DEA450D60DCEA2402F8E490
:10D55000350DF9881089118882F583E493540FF50D
:10D560001290620EF0750A008A828B83A3A3A3A394
:10D57000E4932407F50EA3E4933400F50F740378C5
:10D580000E120602AA0EA812740528F8E43404F953
:10D59000E8FCE9FD750E01750F00E512780E120525
:10D5A000BDE50EF50EE50C2403F8E4350DF9851004
:10D5B00082851183E493A2E7400302D4EA906211CA
:10D5C0007448F0740812D5FD7003750A408E828F7E
:10D5D00083A3A3E493550E6006E50AD2E0F50AE5BD
:10D5E0000A906212F0EA906210F08C828D83A3A3FD
:10D5F000A3A3A3A3A302D5217F0B0203A9F08882D2
:10D600008983E4935403640122C082C08312D63814
:10D610007010A312D63B700AA3E064017002A3E06D
:10D62000600790040C7404800C9004197406F0A335
:10D63000740412D73402CBCB90042012CF8AE8496D
:10D640002274F4120274900405E0640260149004E1
:10D650002212D63B700CA312D63B7006900421E038
:10D66000600890040C7404F0807D7A007901120740
:10D67000BB900420E0FE605A7A00F91206BF8A08C7
:10D680008B09EA450960439004057404F0EEA3F0A9
:10D690007E00850882850983A3A3A3A3E493F8EE03
:10D6A000C398503CEEF8740728F582E43404F583FF
:10D6B000E4F07A0079041206B38A828B83A3A3A3D1
:10D6C000E49370EE1207250E80C890040C7404F0E9
:10D6D000800E900406F09004057403F0F91206E33E
:10D6E0007A0079021207BB02CC4E74F512027490D4
:10D6F0000405E06404701990041EE0648170111246
:10D70000D638700C900424E064017002A3E0600736
:10D7100090040C7404801A900422E02407F508A3F6
:10D72000E03404F509900419E508F0A3E50912D7DF
:10D730003402CF63F0A3E4F0A30412D73E22F0A397
:10D74000E4F090040C042274F4120274900405E0D6
:10D750006404706090041EE0640170589004241208
:10D76000D63B7050900422E0FE900420E0FBEEFADD
:10D77000900406E0F91206C58A088B09EA4509609B
:10D7800033EEFA79031207BB900420E0C0E0900466
:10D7900022E02407F8A3E03404F988828983D0E0EA
:10D7A000F0AA08AB09120725900422E0FA790412C6
:10D7B00007BB800690040C7404F002CC4E74F61281
:10D7C000027412E0AFF50895E0F5097402780812CA
:10D7D00005BDE508240CF8E5093400F990169EE82B
:10D7E000F0A3E9F0E8FCE9FD900484ECF0A3ED126D
:10D7F000E637F0750804F50978081205857C3C7D4C
:10D80000C17A797B1612E0651204F0750820780859
:10D8100012058512E05D1204F075080075090178A3
:10D82000081205857CA27D147A007B0790C15DE01B
:10D83000F912066574021204F09015A1E0F4700B61
:10D84000780812058512E1961204F0120779120683
:10D85000D17AFF7BFF1206F502DEB474F512027472
:10D8600080031206FBA2E840F990620E7404F0A84F
:10D8700018E8540460097818E654FBF61206D7A895
:10D8800018E8541060097818E654EFF61206DD9097
:10D890006214E0A2E05003120785906211E0A2E05A
:10D8A000403A900429E0700D900428E06402702C46
:10D8B0007403F0802F64027023E4F0750879750911
:10D8C00016F50A7808120581790D7A287B6212060E
:10D8D000EF74031204F09062117401F0900428E0D8
:10D8E000640370047901800279007F030203A9C0F8
:10D8F00082C08375AC00759A0012E18D90620FE4CE
:10D90000F0E0A2E740FB02E64B74F61202747508E1
:10D910000475090078081205857C4A7D167A7D7B9E
:10D920001612E0651204F090C15812064890168154
:10D9300012063C901685E4F07508147808120585E7
:10D940007C007D007A657B1612E19E1204F0901631
:10D9500065E05480F8A3E0F9E84470901665F0A300
:10D96000E9F090166E740AF090164E120648901662
:10D970009612063C12075BE9F8901655E0642A708F
:10D980000512078B80769004297402F01468600EEB
:10D9900090169612064890168112063C805E9016EC
:10D9A00055E06428704A906211E0A2E040F812E469
:10D9B0007D1205BD12E465901637F0E9901636F039
:10D9C00075D608E5D6A2E350FA75D7089016A3E0FD
:10D9D00014F0700512E4B060239016A2E004F06425
:10D9E0002070C3E4F09016A1E004F012076780B63F
:10D9F000901696E060069062117401F002DEBC742D
:10DA0000F512027474E71205407F01901655E0602C
:10DA10004B24FD607024F1700302DABC24F870031B
:10DA200002DB0314700302DB3024FE700302DC41CE
:10DA300014700302DB4224FB700302DB4E24FE70F1
:10DA40000302DBB124FD700302DBEE24FE7003024F
:10DA5000DBEE248A700302DBF302DC34900428E05E
:10DA6000600D901685EFF090042804F002DC4190E0
:10DA7000042AE0700302DC4114F0600302DC41126E
:10DA8000077302DC4190164EE0FAA3E0FBC3EA9470
:10DA900015EB940040027A14750865750916750A2D
:10DAA000007808120581EAF97A287B621206EF7481
:10DAB000031204F0901665E0547F80AF90164EE09C
:10DAC000F8A3E0F9C3E89425E994004017E824DCC2
:10DAD000F8E934FFF9E8FAE9FB901681EAF0A3EBE4
:10DAE00012E637F07508247509C0750A0078081227
:10DAF000058179247A287B621206EF74031204F000
:10DB000002DC417409120654AC82AD837583C17581
:10DB1000824C74041204927409120654A982AA83D6
:10DB200089088A09750A007808120581790480C479
:10DB3000901659E06402600302DC41900428EF0271
:10DB4000DA6BA3E0700302DC4190168580F0740D5F
:10DB5000120654AC82AD837583C175820C740C12AD
:10DB6000049290169FE0C0E07413120654D0E0F0C7
:10DB700090169EE0C0E07414120654D0E012DC4B04
:10DB8000940DED940040027C0C906215E0D2E7F019
:10DB9000906212E0D2E7F0740D120654A982AA83B3
:10DBA00089088A09750A007808120581ECF902DAF9
:10DBB000F4EF120654AC82AD837583C17582207474
:10DBC0000812049290169FE0C0E07403120654D02D
:10DBD000E0F090169EE0C0E07404120654D0E0120B
:10DBE000DC4B9409ED940040027C08EF80AB1207F7
:10DBF00091804E90164EE0FAA3E0FB8514828515C5
:10DC000083AC82AD837583C175825EEF120492C3CB
:10DC1000EA9402EB940040027A0185148285158310
:10DC2000AC82AD838C088D09750A007808120581D5
:10DC3000EA02DBAD901685EF12E5E5742012E5DC13
:10DC40001FEFF974191204F002D8EAF090164EE0B2
:10DC5000FCA3E0FDC3EC2274F61202749016A1E05E
:10DC60006480702F900E607480F0900E647401F0E8
:10DC7000900E687404F090169EE0900E6CF0901672
:10DC80009FE0900E6DF0900EA07455F0A374AAF072
:10DC900002DDE2E06481600302DDE275083E7509A1
:10DCA0000078081205857C647D047AA27B0C12E062
:10DCB000651204F0900EA07455F0A374AAF0A3743A
:10DCC000F8F0A374FFF0A3F0901620E0900EA5707A
:10DCD00021E4F0A3F0F50875090178081205857CA8
:10DCE000A27D147AA27B1212E0651204F09013A1B7
:10DCF000803974FFF0A3740FF075082078081205BE
:10DD0000857C067D167AA27B1212E0651204F075FE
:10DD1000080075090178081205857CA27D147AC275
:10DD20007B1212E0651204F09013C1E4F09015A18B
:10DD3000E0700302DDC912E0A62404FEE93400FF0E
:10DD40007A047B007C047D0280227AFF7B0FEAC08C
:10DD5000E012DDE5D0E012DDF0EB540FC0E012DDA3
:10DD6000E5D0E0F0EA24010AEB3400FBC3EE9AEFC1
:10DD70009B4056EE6A7002EF6B70047AFF7B0FECEB
:10DD8000F8EDF9E824010CE93400FDEAC454F0F59B
:10DD90000874A228F582740C39F583E04508F08AEE
:10DDA000088B097404780812060212DDE5E50812F2
:10DDB000DDF0EA24010AEB3400FBEE6A7002EF6B3F
:10DDC0006088C3EE9AEF9B5085750800750902784C
:10DDD000081205857CA27D0E7AA27B1012E06512E6
:10DDE00004F002DEBC74A22CF582740C3DF5832293
:10DDF000F0EC24010CED3400FD2274F61202747470
:10DE0000FF1205409016A1E0C3948050329015A1F6
:10DE1000E0602C9016A1E05407F87401B80002806D
:10DE200004C333D8FCC0E0E0131313541FF874EAA2
:10DE300028F582741512E478D0E0F8E05860378550
:10DE40001482851583E4F0E58290163FF0851583F2
:10DE5000E58390163EF09016457412F075D610E5E5
:10DE6000D6A2E450FA75D7109016A1E0C394804072
:10DE70003E1207618039E5C7FA90163F12E49E1200
:10DE800005BD2400E509348090163EF09016451239
:10DE9000E48B75D610E5D6A2E450FA75D710E5D616
:10DEA000A2E440FA8AC77AA27B0CE0F912067774E2
:10DEB0000102E05753F4FED29043FE017F020203B9
:10DEC000A974F612027474FC1205409016A2E0C305
:10DED0009419500302E012851482851583AC82AD3B
:10DEE000837583C175825074041204927EC27F12BE
:10DEF0008008EE2420FEEF3400FF7508207509002D
:10DF000078081205857C8C7DC0EEFAEF12E087124E
:10DF100004F08B09EA450970D9EE24E0FEEF34FFE6
:10DF2000FF75080375090078081205857C547DC1CA
:10DF3000EE240812E07F1204F08B09EA4509750807
:10DF4000047509007808705512058574021206548C
:10DF500012E0781204F08B09EA450990042B700A4C
:10DF60007404F0901620E402E04E740212E471741E
:10DF70000212E08E7464F0EE241D12E06EEE241E98
:10DF800012E06E12E06B750820F50978081205851D
:10DF9000EEFCEFFD12E0611204F002E04F12058585
:10DFA000740212065412E0781204F08B09EA450953
:10DFB000700B90042B7403F09015A180A912E0A6B9
:10DFC0002401F508E93400F509740378081205BD49
:10DFD00090042B0412E471740312E08EE4F0EE243A
:10DFE0001D12E475E508F0EE241E12E475E509F053
:10DFF00012E06BF50875090178081205857CC27D71
:10E00000127AA27B1412E0651204F09015A174013B
:10E01000803CE0C3941140379010A5E0701B90162F
:10E0200020E06015E4F090042B7404F09015A1E05A
:10E03000701D790112069580169010A6E054F070BC
:10E040000E9015A1E06008E4F090042B7403F090AA
:10E05000042A7408F074041204F002DEBC7C6C7DA7
:10E06000C07A067B161207CD740222EE241FF582B9
:10E07000EF3400F583E4F022AC82AD83EE241CFA89
:10E08000EF340012E08722FB1207C7740222F0EE81
:10E09000241BF582EF3400F583E4F0EE241CF582B6
:10E0A000EF3400F5832212E0AFF895E0F9E8229012
:10E0B000C15CE0F890C15DE0FAE8C39A2274F61200
:10E0C000027412E18D90042BE014600A24FE604E6D
:10E0D00014607102E17E901605E0600302E17E1299
:10E0E0000671E9700302E17E750840750900780841
:10E0F0001205857CA27D1490C15DE0F50874097855
:10E10000081205BD24C0FAE5093401FB12066B7440
:10E11000021204F0C2AF75C9AB75C95B80FE9016E0
:10E1200005E0700479008008901620E060167901FF
:10E13000120695750800750901780812058512E127
:10E14000961204F09015A4E4F0A3F09015A1E070ED
:10E150002D901620E07027750820750900780812A8
:10E16000058512E05D1204F07508647808120585D3
:10E170007CFF7D007AA27B1512E19E1204F09004D0
:10E180002BE4F07AD07B0712077F02DEB453F4FE53
:10E19000C29043FE01227C007D007AA27B1412070C
:10E1A000D3740222C082C0837416F5D375D2269030
:10E1B00016277428F09016267462F090162A12E240
:10E1C000057412F090163174A2F07404901630F0B9
:10E1D00090163212E6357420F09016397428F090BB
:10E1E00016387462F090163A12E2057442F09016F6
:10E1F0004174A2F0740C901640F090164212E6356D
:10E20000742002E64AE4F0A37440F0A37420F0A363
:10E2100022EBC313FBEA13FAEAF8EBF9E824FFFA5E
:10E22000E934FFFBE849601A00000000000000002C
:10E2300000000000000000000000000000000000DE
:10E2400080D60204D874F6120274906216E0FA7452
:10E250001F6A705578467916906228E08882898313
:10E26000F0A3A882A9831AEA70EE75080475090064
:10E2700078081205857C387DC17A467B1612E088C5
:10E280001204F08B09EA4509702A901653E07024B5
:10E29000901652E060046480701A901654E014C323
:10E2A00094105010120755800B9062147410F0E017
:10E2B000A2E440FB906214E4F002DEBC74F61202A9
:10E2C00074906214E4F0906214E0A2E0400302E46F
:10E2D0004C12E47D1205BD12E465901629F0E99018
:10E2E0001628F075D602E5D6A2E150FA75D702904D
:10E2F0006214E4F09016A3E014F0700B12E4B07016
:10E30000069004297402F09016A2E004F0642060E4
:10E310000812E4C4600302E44C9016A1E06481702A
:10E320000C12076D9016A1E004F002E44790042B54
:10E33000E06402702F9016A1E064826006E0C3944E
:10E340008050217AA27B0C12067DE9600302E4472B
:10E35000750820750900780812058512E05D120421
:10E36000F002E4479016A1E0C39480400302E44722
:10E37000901605E0600302E4477AA27B0C9016A198
:10E38000E0F9120677E9700512E45780FE7508007F
:10E3900075090278081205857CA27D0C9016A1E013
:10E3A000F508750900740978081205BDFAAB091261
:10E3B000066B74021204F0E5C7FA90162F12E49E61
:10E3C0001205BD2400E509348090162EF090163514
:10E3D00012E48B75D604E5D6A2E250FA75D704E5AF
:10E3E000D6A2E240FA8AC775090878081205857C2A
:10E3F000A27D047AA27B0C12E0881204F08B09EA59
:10E400004509600512E45780FE12E4C46039901695
:10E41000A1E004F0C39478400512E45780FEE05474
:10E4200007F87401B800028004C333D8FCC0E0E0F0
:10E43000131313541FF874DA28F582741512E47854
:10E44000D0E0F8E05860C79016A2E4F012E4C4608F
:10E450000302E2C602DEBC7901120695C2AF75C99D
:10E46000AB75C95B2274A22508F8740C3509F9E86C
:10E4700022F0EE241AF582EF3400F583229016A2E2
:10E48000E0F50875090074067808227452F09016B9
:10E49000A1E0C4540FF8E5C754F848F5C722E4F0EA
:10E4A0009016A1E0540FF508750900740B78082246
:10E4B0007408F090169CE024FFF0F8A3E034FFF01D
:10E4C000F9E8492290169CE0F8A3E0F9E8492274A3
:10E4D000F612027474FC12054090165DE0FA901674
:10E4E0005CE0F9EA90169CF0A3E9F0901657E0C0C2
:10E4F000E07403120654D0E0F0901658E0C0E074C7
:10E5000002120654D0E0F0901659E0C0E0740112F7
:10E510000654D0E0F090165AE0851482851583F0F9
:10E52000740212065412E4C770288514828515837C
:10E53000E0F8A3E0F990169CE028FAA3E039FB90FC
:10E54000169EE0240CF8A3E03400F9C3EA98EB9996
:10E55000401C901685740112E5E57421F0A3E412C5
:10E56000E5DC90169612064890168112063C90162D
:10E57000A37408F0851482851583E0FAA3E0FBC339
:10E58000EA940CEB94004008EA24F4FAEB34FFFB25
:10E590008A088B0974027808120602A808E8333347
:10E5A00054FCF9EAC39933333354F89016A2F0853A
:10E5B0001482851583C3E0940CA3E0940050047486
:10E5C00080800490C15DE028F8E89016A1F09016D4
:10E5D00055E06428700312076702E055F090166555
:10E5E000E04480F022F0901668E054F0F8A3E0F9DF
:10E5F000E84405901668F0A3E9F090167322804174
:10E60000C082C08390041FE064FE702190040CE07F
:10E610007017900419745FF0A374C112E63704F008
:10E62000A3E4F090040C0480096401600690040CDB
:10E630007404F080167408F0A3E4F0A32280028032
:10E6400000C082C08390040C7404F0D083D0820296
:10E6500004D880ED0204D80204D874F7120274744E
:10E6600009120654E0FEA3E08015A3AA82AB838CB6
:10E67000828D83A3AC82AD83EE24FF1EEF34FFFFB7
:10E68000EE4F60198C828D83E0F88A828B83E0F9EB
:10E69000E86960D6E9C398FA95E0FB80047A007BCC
:10E6A000007F010203A974F6120274EAF8EBF97410
:10E6B0000A120654E0FEA3E0FF80188C828D83E0EE
:10E6C00088828983F0A3A882A9838C828D83A3ACDE
:10E6D00082AD838E088F09E50824FF1EE50934FF0B
:10E6E000FFE508450970D47F020203A9C082C083F8
:10E6F000851482851583E0F8A3E0F9E84960128A61
:10E70000828B83ECF0A3E824FF18E934FFF948700A
:10E71000F2D083D0820204D8FFFFFFFFFFFFFFFF8C
:10E72000FFFFFFFFFFFFFFFFFFFFFFFFFFFFFFFFF9
:10E73000FFFFFFFFFFFFFFFFFFFFFFFFFFFFFFFFE9
:10E74000FFFFFFFFFFFFFFFFFFFFFFFFFFFFFFFFD9
:10E75000FFFFFFFFFFFFFFFFFFFFFFFFFFFFFFFFC9
:10E76000FFFFFFFFFFFFFFFFFFFFFFFFFFFFFFFFB9
:10E77000FFFFFFFFFFFFFFFFFFFFFFFFFFFFFFFFA9
:10E78000FFFFFFFFFFFFFFFFFFFFFFFFFFFFFFFF99
:10E79000FFFFFFFFFFFFFFFFFFFFFFFFFFFFFFFF89
:10E7A000FFFFFFFFFFFFFFFFFFFFFFFFFFFFFFFF79
:10E7B000FFFFFFFFFFFFFFFFFFFFFFFFFFFFFFFF69
:10E7C000FFFFFFFFFFFFFFFFFFFFFFFFFFFFFFFF59
:10E7D000FFFFFFFFFFFFFFFFFFFFFFFFFFFFFFFF49
:10E7E000FFFFFFFFFFFFFFFFFFFFFFFFFFFFFFFF39
:10E7F000FFFFFFFFFFFFFFFFFFFFFFFFFFFFFFFF29
:04000005000005D022
:00000001FF
