:020000040000FA
:100000000205F5020823FFFFFFFFFF02082BFFFF99
:10001000FFFFFF020833FFFFFFFFFF02083BFFFF68
:10002000FFFFFF020843FFFFFFFFFF02084BFFFF38
:10003000FFFFFF020853FFFFFFFFFF02085BFFFF08
:10004000FFFFFF020863FFFFFFFFFF02086BFFFFD8
:10005000FFFFFF020873FFFFFFFFFF02087BFFFFA8
:10006000FFFFFF020883FFFFFFFFFF02088BFFFF78
:10007000FFFFFF020893FFFFFFFFFF02089BFFFF48
:10008000FFFFFF0208A3FFFFFFFFFF0208AB000313
:100090005F005F003000580000000000000000001A
:1000A0000000000000000000000000000000000050
:1000B00000000000000000007C04AE04AE04AE04AA
:1000C000AE04B204EB3C904D53444F53352E3000F8
:1000D000020401000210000000F80100000000000E
:1000E0000400000004000000000029000000004E91
:1000F0004F204E414D452020202046415431322092
:10010000202074F712032D43C707E59D541864108F
:10011000704275080475090078081205BD7C9D7D44
:10012000147A9C7B067901120682740212053D90B6
:10013000149DE0F8A3E0F9A3E0687003A3E0697000
:100140001390149DE0F47003A3E0F46007E84960A5
:10015000031206AC781075B60FE5B4A2E750FAE5C5
:10016000BBC3944A40F018E870EC75A80075B8005D
:10017000759A0075C6809062707408F053F3FE5350
:10018000FDFE538FFE43F72053F3FD53FDFD538FC8
:10019000FD43F72053F3FB53FDFB538FFB43F72045
:1001A00053F3F753FDF7538FF743F72053F3EF5310
:1001B000FDEF538FEF43F72053F3DF53FDDF538FF2
:1001C000DF43F72053F3BF53FDBF538FBF43F720E7
:1001D00053F37F53FD7F538F7F43F72053F4FD5339
:1001E000FEFD53F6FD43F74053F4FB53FEFB53F67D
:1001F000FB43F74053F4F753FEF753F6F743F7404A
:1002000053F4EF53FEEF53F6EF43F74053F4DF534D
:10021000FEDF53F6DF43F74053F4BF53FEBF53F600
:10022000BF43F74053F47F53FE7F53F67F43F740BD
:1002300053F5F753FFF753F7F743F78053F5EF53B1
:10024000FFEF53F7EF43F78043F70679017F020290
:10025000043CE4CFC0E0E4CEC0E0E4CDC0E0E4CCB8
:10026000C0E075F020E626F608E633F608E633F639
:1002700008E633F6181818EC33FCED33FDEE33FEC8
:10028000EF33FFC3EC9709ED9709EE9709EF971944
:100290001919400FFFEC97FC09ED97FD09EE97FE49
:1002A000191906D5F0BFECF709EDF709EEF709EFDC
:1002B000F7191919D0E0FCD0E0FDD0E0FED0E0FF46
:1002C000222513C582C0E0E51434FFC583C0E0E5F4
:1002D00013C3958224F810AF088583148582138098
:1002E00008858314858213D2AFCEF0A3E520F0A356
:1002F0007808E608F0A3DEFAEFF0A3E58124FAF827
:10030000E608F0A3E608F0A3E608F0A30808E6086C
:10031000F0A3E608F0A315811581D0E0FED0E0F847
:10032000158115811581E8C0E0EEC0E0222513C5D6
:1003300082C0E0E51434FFC583C0E0E513C39582B5
:1003400024F910AF088583148582138008858314EF
:10035000858213D2AFCEF0A3E520F0A37808E6089B
:10036000F0A3DEFAEFF0A3E58124FBF8E608F0A3A2
:10037000E608F0A30808E608F0A3E608F0A3158154
:100380001581D0E0FED0E0F815811581E8C0E0EEDF
:10039000C0E022120102B900030203E0E4791578FB
:1003A00007B800028004F709D8FCE4900300782A1B
:1003B00079018002F0A3D8FCD9FA7A297B03900056
:1003C0008E787579018015E493A3AD82AE838A821D
:1003D0008B83F0A3AA82AB838D828E83D8E9D9E781
:1003E0007582777583C5740712051F75827B7583C7
:1003F00006740012051F851483851382E0A3FEE0B6
:10040000A3F5207808E0A3F608DFFAE0A3FFE0A355
:10041000C0E0E0A3C0E0E0A3C0E0E0A3C0E0E0A350
:10042000C0E010AF0885821385831480088582138D
:10043000858314D2AFD083D08202052585148385AD
:100440001382E0A3FEE0A3F5207808E0A3F608DF1E
:10045000FAE0A3FFE0A3C0E0E0A3C0E0E0A3C0E0B7
:10046000E0A3C0E010AF088582138583148008855F
:100470008213858314D2AFD083D08222120100026E
:10048000000000205104A81609000102030109021E
:100490002000010100800F0904000002080650003E
:1004A000070584024000000705040240000097048D
:1004B000102074038000CCC0E0EDC0E0E513C39CC5
:1004C000CCAD1450011D10AF068C138D1480068C1A
:1004D000138D14D2AF1204DFD0E0FDD0E0FC22CAAD
:1004E000C0E0E0A3C582CCC582C583CDC583F0A39F
:1004F000C582CCC582C583CDC583DAE6D0E0CA22E9
:100500007009080808226016181818C6C333C608F0
:10051000C633C608C633C608C633C6D5E0EA22C00D
:100520009FF59FE473D09F22D083D082C09FE49335
:10053000C0E0740193C0E0740293F59F2200C0D024
:10054000251310AF08F513500C05148008F513504F
:10055000020514D2AFD0D0222513F58210AF08F5D2
:1005600013400C15148008F51340021514D2AF8502
:10057000148322BB0102E722C082C08389828A835E
:10058000BB0003E08002E493D083D08222BB000E44
:10059000C082C0838A838982F0D083D08222BB014B
:1005A00001F722251310AF08F513400C151480082D
:1005B000F51340021514D2AF227403800474028034
:1005C00000C0E0F404120558D0E012064422C3E053
:1005D00096F008A3E096F008A3E096F008A3E09652
:1005E000F022700422600D18C6C333C608C633C695
:1005F000D5E0F4182275D00075813F75130075148D
:1006000003759F00020393C3E09608A3E09608A336
:10061000E09608A3E09622600C08C6C313C618C66D
:1006200013C6D5E0F422E6F008A3E6F008A3E6F04E
:1006300008A3E6F022E0F608A3E0F608A3E0F60837
:10064000A3E0F622CAC0E0E6F0A308DAFAD0E0FAA6
:1006500022E0FAA3E0FBA3E0FCA3E0FD22EAF0A382
:10066000EBF0A3ECF0A3EDF0222513F582E43514B2
:10067000F583222513FCE43514FD2200000080FBE5
:10068000E47312052824C107120528A4C107120526
:100690002801C2071205285DC20712052862C20799
:1006A0001205281AC307120528DCC3071205281DE6
:1006B000C5071205282AC5071205288EC507120589
:1006C0002804C60712052823C60712052868C6078E
:1006D0001205289CC60712052847C707120528805F
:1006E000C7071205289FC707120528C8C9071205A2
:1006F00028E2C90712052817CA0712052843CA07A6
:1007000012052881CA0712052821CB07120528FAED
:10071000CB07120528E7CC07120528F9CC071205EC
:10072000280BCD0712052851CD07120528E1CE0769
:1007300012052841D00712052879D0071205282470
:10074000D10712052881D107120528F7D107120514
:100750002895D20712052829D30712052843D30765
:1007600012052839D40712052891D6071205283416
:10077000D807120528FBD807120528F7DA07120553
:1007800028DEDB071205284BDC071205287FDC0773
:10079000120528F6DC0712052809DF07120528389C
:1007A000E0071205283AE00712052877E00712054E
:1007B0002879E0071205287BE0071205288CE0075E
:1007C0001205288EE00712052891E00712052894EB
:1007D000E007120528E0E00712052826E107FFFFE1
:1007E000FFFFFFFFFFFFFFFFFFFFFFFFFFFFFFFF19
:1007F000FFFFFFFFFFFFFFFFFFFFFFFFFFFFFFFF09
:020000040003F7
:10C00000240354006500780061007300200049009B
:10C010006E0073007400720075006D0065006E00A4
:10C0200074007300008002021F00000047656E6507
:10C030007269632055534220466C617368204469DD
:10C04000736B2020302E3030240354004900200030
:10C05000430043003200350033003100200055001A
:10C060005300420020004D00530044004445464127
:10C07000554C5420434647200015095A473F473F37
:10C0800000008656473F02006400000000000000E8
:10C0900000000000000000000000000000000000A0
:10C0A000000000000000000000000000FFFFFFFF94
:10C0B000FFFFFFFFFFFFFFFFFFFFFFFFFFFFFFFF90
:10C0C000FFFFFFFFFFFFFFFFFFFFFFFF30313233B6
:10C0D000343536373839414243444546000000087C
:10C0E0000000000002000200FFFFFFFFFFFFFFFF54
:10C0F00000000000000002005553424355534253D4
:10C10000FFFFFFFF7D00000004030904FFFFFFFFA6
:10C11000030000000000000043464700000000004C
:10C120007701000074F51202C1890A740F550AF5EF
:10C1300008750900740B78081205E2EA2400F8EB90
:10C140003480F9E82400E93509F985C709A2AFE48C
:10C1500033F508C2AFE50AC4540FFAE5C754F84AEC
:10C16000F5C7740B12066912CA11801C8882898374
:10C17000E08C828D83F088828983A3A882A9838C36
:10C18000828D83A3AC82AD83EAFEEBFFEE24FF1A1F
:10C19000EF34FFFBEE4F70D48509C7E508A2E092AB
:10C1A000AF02C9A974F61202C1ED901581F0ECA39B
:10C1B000F0A37462F0A37473F0A3E0541FF0740A48
:10C1C00012066912C4FA333354FC901586F07406D3
:10C1D0007808120617E508901585F09015877412F7
:10C1E000F0A37442F075D1FE75D601EA906271F049
:10C1F000EBA3F0906270E0D2E1F0E0A2E740FB80B8
:10C200005774F61202C17508047509007808120502
:10C21000BD7C9D7D147A9C7B067901120682740296
:10C2200012053D90149D12C5D8A3E8F0A3E9F09043
:10C23000149D74FFF0A3F075080178081205BD7C09
:10C240009D7D147AA77B03120688740212053D793E
:10C25000018005758B00C2E87F020203F6790102B6
:10C26000052574F61202C174FC1205A3EAFEEBFF69
:10C27000901500E0607175082075090078081205B6
:10C28000BDEE2408FCE43FFD7AA57B141207CC74B4
:10C290000212053D8B09EA4509604C9014FDE0F956
:10C2A000700F79011206B2C2AF75C9AB75C95B8058
:10C2B000FE78018004E8C333F8E85960F8E068F0DC
:10C2C00090C100AC13AD1474041204DF12C5041243
:10C2D00005BD74021206737ABF7B031206887402CE
:10C2E00012053D7900802B901500E4F0750858F593
:10C2F0000978081205BDEE2404FCE43FFD7AA17B19
:10C30000141207D2740212053D90149FE4F0A3F0BA
:10C310007901740412053D02C25874F41202C1740A
:10C32000FC1205A312074EE9640190149D700302EC
:10C33000C3B412C5167003A3E06970E890149DE0C1
:10C34000F47003A3E0F460DCE84960D89014A31211
:10C35000D07360D0E595851382851483F065957060
:10C36000F3E596C0E07401120669D0E0F0E597C0ED
:10C37000E07402120669D0E0F07403120669E4F07A
:10C3800090158978081206358513828514837808FC
:10C390001205CE7403120669E4F0851382851483B6
:10C3A000780812063590158D7808120607400302AA
:10C3B000C324801A12C5167003A3E0697016901486
:10C3C0009DE0F47003A3E0F4600AE84960061207F8
:10C3D000541206AC740412053D02D11F74F012020F
:10C3E000C174FC1205A3750864750900780812056C
:10C3F000BD7C9D7D147A9C7B0679011206827402B5
:10C4000012053D75082078081205BD7CAC7DC07A08
:10C41000A57B141207CC740212053D8B09EA45096D
:10C420007005901500E4F090149D12C5167003A3DA
:10C43000E069600302C4D790149DE0F47003A3E0A8
:10C44000F4700302C4D7E849700302C4D79014F90A
:10C45000E0F9603C78018004E8C333F8E85960F8FB
:10C46000E068F0700890149FE4F0A3806990C10C1C
:10C47000AC13AD1474041204DF12C5041205BD74AC
:10C48000021206737ABE7B03120688740212053DFF
:10C490009014A312C4FA450970051206AC8038E462
:10C4A000F50AF50B740C780812050090C104780C9D
:10C4B0001206357808790C12025290158D78081200
:10C4C0000626E595901589F0659570F6E596A3F03A
:10C4D000E597A3F0A3E4F0781075B60FE5B4A2E7F2
:10C4E00050FAE5BBC3944E40F018E870EC120748D0
:10C4F000740412053D7F080203F6E0F508A3E0F599
:10C5000009E50822851382851483E068F075080127
:10C5100075090078082212C5DCA3E0682202082011
:10C52000C2AF75C9AB75C95B80FEC082C08378029B
:10C53000E97027E8131313541FFA74C52AF582E42F
:10C540003414F583E0C0E0740758FAD0E0BA000272
:10C550008004C313DAFCA2E0500EE8C33390627289
:10C56000F0906270E0D2E0F008E8C3947840C190A7
:10C570006272740202C6147415F5D575D481120660
:10C58000A61206A0C2AF75C9AB75C95B80FEC0829A
:10C59000C083E9FCEAFD7A007B00800312C5E290CB
:10C5A000030012C5D8900355E0687003A3E06960EA
:10C5B00022900301E0F5838882A3E493F8EC68708D
:10C5C0000B90030012CA1112C5E28007ED6870CC0F
:10C5D000ED60C9804790031912C5DC22E0F8A3E0A2
:10C5E000F922900300E0F8A3E0F5838882E493F851
:10C5F000900300E028F8A3E03400F9900300E8F08D
:10C60000A3E9F022C082C08312C6597A00790112D0
:10C6100006B88008F0906270E0D2E0F0D083D0825B
:10C6200002052574F61202C1E9FFEAFE12C6597A24
:10C630000079021206B8EA4B601CEF60108A828B08
:10C6400083A3A3A3A3A3E4936F70E48009EEF8741B
:10C65000FF28FE0470D902C25890035312C5DC9023
:10C660000300E8F0A3E9F02274F41202C1EAFF8BA0
:10C67000087A001206C47A0279041206B8EA4B60FE
:10C68000188A828B83A3A3E4936F70EA8A828B83D8
:10C69000A3A3A3E493650870DD02D11F74F712020F
:10C6A000C174F81205A3E97A007B00600B14600ED8
:10C6B00014601114601480787A087BC180727A004B
:10C6C0007BC0806C7A487BC08066900329E0705CF8
:10C6D00090C0E8AC13AD1474081204DF7C287D0010
:10C6E000EDF8851382851483E58228F582E435838D
:10C6F000F583E0FFECF8742928F8E43403F9EF122D
:10C70000C73888828983F0EFC412C738C0E0E824B4
:10C71000FEF582E934FFF583D0E0F00D74FC2CFCCB
:10C72000EDC3940840BA900329742AF07A297B0358
:10C73000740812053D02CA3E540FFA74CC2AF582E1
:10C74000E434C0F583E02274F61202C17A00790164
:10C750001206C48A828B83A3A3A3A3A3A3A3E493F7
:10C76000A2E6900315500474018001E4F0900314D4
:10C77000E4F090620F7403F0E0A2E750FB02C258AD
:10C78000C082C0839003027402F0A3E4F090030916
:10C79000F079031206E875150075160002C61C74C0
:10C7A000F51202C190620EE0FEE4F0906211E0FF2B
:10C7B000A2E4501D7480F09003097407F0E515455C
:10C7C000166009851582851683120680900309E498
:10C7D000F0EFA2E2500B906211E4F0900309F080B8
:10C7E00064900309E0F87402687043906216E0FFF9
:10C7F0009003161204B2EFF97A207B621206EE74EF
:10C800000312053DEFF890031912C9BE12CA0BE9D5
:10C810002F12C9AEA312D073600474408002744812
:10C82000906211F0E849600302C9A402C98074064D
:10C83000687009851582851683120680900309E0C9
:10C84000600302C92FEFA2E0400302C9A475081BD0
:10C85000750903750A0078081205B979087A207BF2
:10C86000621206EE740312053D75150075160090F0
:10C87000031BE054E0601D24E0700302C90A24E0B9
:10C88000607224C0604824E0700302C91524E0608F
:10C890006E02C920A3E014602624FE601D24FE6001
:10C8A0000A24FC601F24FE6020807512071E90037E
:10C8B00009E0640470727860807012071880EF12CB
:10C8C000071280EA12073680E512074280E0A3E0F3
:10C8D000600E24FA600F24FE601024FE6011804078
:10C8E00012070680C912072480C412073080BF12C5
:10C8F000073C80BA7515A87516071207A880AF7592
:10C9000015AE7516071207AE80A475159C7516072F
:10C9100012079C80997515A27516071207A2808EC2
:10C920009003097404F0808E7840E8906211F090D2
:10C930000309E0F8740168705D7F0212C5D5C3E891
:10C940009420E994005007E8F5087F0A80037508F1
:10C95000209003161204B2A9087A207B621206F412
:10C96000740312053DAC0812CA0BE92C12C9AEA81B
:10C9700008A312C9BEEF906211F0E8C394205024BE
:10C98000E515451660098515828516831206809087
:10C990000309E4F0800E7405687009851582851618
:10C9A00083120680EE90620EF07F030203F6F9E434
:10C9B0003AFA900316E9F0A3EAF0A3EBF022C3E001
:10C9C00098F0A3E09400F022C082C083E990030AAB
:10C9D0007805F0A3D8FC90030F7805F0A3D8FC02EB
:10C9E000C61C74F71202C1EAFCEBFDE9F8740912E7
:10C9F000066912CA0EE860118C828D83E012058DE3
:10CA0000E9240109E43AFAD8EF8033900316E0F9FB
:10CA1000A3E0FAA3E0FB2274F71202C1EAFCEBFDEB
:10CA2000E9F8740912066912CA0EE860111205735A
:10CA30008C828D83F0E9240109E43AFAD8EF7F0172
:10CA40000203F674F61202C1751700751800751905
:10CA5000008A1A8B1BEA90620BF08A088B09740417
:10CA60007808120617E508906207F08A088B0974A7
:10CA7000097808120617E508543E906209F002C2D0
:10CA80005374F61202C1E59DA2E650FA906206E0E8
:10CA9000F9A2E25034AA1AEA90620BF0F508851B5D
:10CAA0000974047808120617E508906207F08A08EE
:10CAB000851B0974097808120617E508543E906230
:10CAC00009F0906201E0D2E0F0E9781746F6906252
:10CAD00002E0F508750900740478081205E2781779
:10CAE000E50846F608E50946F6906204E0F50875A3
:10CAF0000900740978081205E27818E50946F6E994
:10CB0000A2E050037519017406596003751900E518
:10CB10008BA2E55006758BDF7519001207C602C29D
:10CB200053C082C08312D070600302CBF3A3E0F83D
:10CB3000A3E0600302CBF3A3E064027002A3E06011
:10CB40000302CBF390031BE02480600914604C14B3
:10CB5000605902CBF3E8600302CBF3900315E09039
:10CB6000032360077401F0A3E48003E4F0A3F090D2
:10CB70000314E06007900323E04402F0900309E00F
:10CB8000640460149003167423F0A37403F0A3E408
:10CB9000F0A3740212D178F002C61C900302E06484
:10CBA000047050900323E4F0A380D0E8547FFA90FF
:10CBB0000302E06404703CEAC39406503674022A0F
:10CBC000F582E43403F583E85480600EA3A3A3A3A5
:10CBD000A3A3A3E0640370CB800FE582240CF5824D
:10CBE00050020583E0640370BA9003237401F0A33C
:10CBF000E480889003097404809D74F71202C1E9EF
:10CC0000FE90032112D073600302CCDC900302E09B
:10CC10006404600B90031F12D073600302CCDC909D
:10CC2000031BE0541F600914603014602002CCDC48
:10CC300090031DE064017022EE900314F06004790B
:10CC400005800279067A001207C002CCE290031F29
:10CC5000E0547FFA90031DE06005790002CCE4EA1D
:10CC6000C394065077EA90620EF074022AF8E43416
:10CC700003F990031FE05480602EEE60047410806E
:10CC8000027440906211F0EE60047B0380027B002E
:10CC9000EB88828983A3A3A3A3A3A3A3F0EE6004DC
:10CCA0007908802F7907802BEE60047B2080027B3F
:10CCB00080EB906214F0EE60047B0380027B00E85E
:10CCC000240CF582E439F583EBF0EE6004790A80F8
:10CCD0000279091207C090620EE48005900309747E
:10CCE00004F0790102CA3EC082C083790012070CA9
:10CCF000E970031207B402C61CC082C08379011216
:10CD0000070CE970031207BA02C61CC082C08390E8
:10CD1000031F12D0737015A312D073700F90031DF0
:10CD200012CEDC5480FAE9FBEA4B600790030974E9
:10CD300004801AE8906200F09003026009E0640247
:10CD4000700C74038007E0640370037402F002C681
:10CD50001C74F11202C190031DE0FAA3E0F50B145C
:10CD6000600814601014603980571206BE12CEC3DA
:10CD7000A37B80804179001206C412CEC37B80E978
:10CD80002402F9E43AFA120573FC1919E0FAA3E94E
:10CD90002403F9E43AFA120573F9ECA3F0A3E9804D
:10CDA0001CEAF91206D0900316EAF0A3EBF0A3E414
:10CDB00012CED2A37B00120573A3F0A3E4F002CE3F
:10CDC00084900316E4F0A3F0A3F0750E0090031F07
:10CDD000E0F50CA3E0F50D900357E0FCA3E0FD02A5
:10CDE000CE62850E08750900740378081205E2EC1E
:10CDF0002508F8ED3509F988828983E493650B707D
:10CE00005FA3E493C0E0EAFED0E06E7053888289AD
:10CE100083A3A3E493AE0D6E704688828983A3A397
:10CE2000A3E493AE0C6E703888828983A3A3A3A376
:10CE3000E493F508740193F509900316E508F0A34F
:10CE4000E509F0A37480F088828983A3A3A3A3A338
:10CE5000A3E493F8740193F9900319E8F0A3E9F0BF
:10CE6000050E90035912CEDCC39CF508E99DF50927
:10CE700074037808120617C3E50E9508E495095067
:10CE80000302CDE2900316E0FCA3E0FDA3E0FEEC7C
:10CE90004D4E900309700474048022E06404601E07
:10CEA00090032112CA1112C5D5C3EA98EB99500814
:10CEB000900319EAF0A3EBF09003097401F07F07E7
:10CEC0000203F6900316EAF0A3EBF0A3748012CEEF
:10CED000D222F0900316E0F9A3E0FA2212C5DCE8B2
:10CEE0002274ED1202C1EA2404F508E43BF5098539
:10CEF0000882F583E493602590035B12CEDCFEE9A3
:10CF0000FF8007EE2404FE50010F8E828F83E4938E
:10CF1000F8740193F9EA687002EB6970E6750B002A
:10CF2000803F9062147490F0741012D035700375C5
:10CF30000A408E828F83A3A3A3E493550E6006E577
:10CF40000AD2E0F50AE50A906215F0EA906213F061
:10CF5000EC240CF582E43DF583E4F090620EF005DC
:10CF60000B850882850983E493F8E50BC398400399
:10CF700002D0307A0079051206B88A0C8B0DEA458A
:10CF80000D60DCEA2402F8E4350DF9881089118877
:10CF900082F583E493540FF51290620EF0750A0047
:10CFA0008A828B83A3A3A3A3E4932407F50EA3E4AF
:10CFB000933400F50F7403780E120617AA0EA81208
:10CFC000740228F8E43403F9E8FCE9FD750E0175F4
:10CFD0000F00E512780E1205E2E50EF50EE50C24C1
:10CFE00003F8E4350DF9851082851183E493A2E7F7
:10CFF000400302CF229062117448F0740812D035B9
:10D000007003750A408E828F83A3A3E493550E604C
:10D0100006E50AD2E0F50AE50A906212F0EA9062AB
:10D0200010F08C828D83A3A3A3A3A3A3A302CF5943
:10D030007F0B0203F6F088828983E4935403640132
:10D0400022C082C08312D0707010A312D073700AF5
:10D05000A3E064017002A3E06007900309740480F8
:10D060000C9003167403F0A3740312D16E02C61B56
:10D0700090031D12C5DCE8492274F41202C190032A
:10D0800002E06402601490031F12D073700CA312AC
:10D09000D073700690031EE060089003097404F0DA
:10D0A000807D7A0079011207C090031DE0FE605A6E
:10D0B0007A00F91206C48A088B09EA450960439090
:10D0C00003027404F0EEA3F07E00850882850983D4
:10D0D000A3A3A3A3E493F8EEC398503CEEF8740422
:10D0E00028F582E43403F583E4F07A00790412062B
:10D0F000B88A828B83A3A3A3E49370EE12072A0E4F
:10D1000080C89003097404F0800E900303F090032C
:10D11000027403F0F91206E87A0079021207C07F60
:10D12000040203F674F51202C1900302E064047075
:10D130001990031BE06481701112D070700C900381
:10D1400021E064017002A3E0600790030974048089
:10D150001A90031FE02404F508A3E03403F50990B6
:10D160000316E508F0A3E50912D16E02C9A8F0A3E1
:10D17000E4F0A30412D17822F0A3E4F090030904B0
:10D180002274F41202C1900302E064047060900300
:10D190001BE06401705890032112D073705090030B
:10D1A0001FE0FE90031DE0FBEEFA900303E0F9128E
:10D1B00006CA8A088B09EA45096033EEFA79031238
:10D1C00007C090031DE0C0E090031FE02404F8A313
:10D1D000E03403F988828983D0E0F0AA08AB091211
:10D1E000072A90031FE0FA79041207C08006900313
:10D1F000097404F002D11F74F61202C112DAE9F5C3
:10D200000895E0F509740278081205E2E508240C97
:10D21000F8E5093400F9901595E8F0A3E9F0E8FC89
:10D22000E9FD90037FECF0A3ED12E071F0750804C6
:10D23000F50978081205BD7CFC7DC07A747B151257
:10D24000DA9F12053D75082078081205BD12DA979D
:10D2500012053D75080075090178081205BD7C9D11
:10D260007D137A007B0790C121E0F91206827402D7
:10D2700012053D90149CE0F4700B78081205BD1265
:10D28000DBD012053D12077E1206D67AFF7BFF1215
:10D2900006FA02D8EE74F51202C18003120700A24A
:10D2A000E840F990620E7404F0A817E8540460098D
:10D2B0007817E654FBF61206DCA817E8541060094C
:10D2C0007817E654EFF61206E2906214E0A2E050FE
:10D2D0000312078A906211E0A2E0403A900326E030
:10D2E000700D900325E06402702C7403F0802F64AD
:10D2F000027023E4F0750874750915F50A780812B0
:10D3000005B9790D7A287B621206F4740312053D83
:10D310009062117401F0900325E0640370047901B8
:10D32000800279007F030203F6C082C08375AC00DF
:10D33000759A0012DBC790620FE4F0E0A2E740FBB1
:10D3400002E08574F61202C17508047509007808B8
:10D350001205BD7C457D157A787B1512DA9F120582
:10D360003D90C11C12065190157C12065D901580EF
:10D37000E4F075081478081205BD7C007D007A6021
:10D380007B1512DBD812053D901560E05480F8A3A0
:10D39000E0F9E84470901560F0A3E9F09015697425
:10D3A0000AF090154912065190159112065D120768
:10D3B00060E9F8901550E0642A70051207908076B5
:10D3C0009003267402F01468600E901591120651B5
:10D3D00090157C12065D805E901550E06428704ABE
:10D3E000906211E0A2E040F812DEB71205E212DE10
:10D3F0009F901532F0E9901531F075D608E5D6A268
:10D40000E350FA75D708901599E014F0700512DE14
:10D41000EA602390159BE004F0642070C3E4F09070
:10D42000159AE004F012076C80B6901591E0600642
:10D430009062117401F002D8F674F51202C174E71B
:10D440001205A37F01901550E0604B24FD6070240D
:10D45000F1700302D4F624F8700302D53D14700372
:10D4600002D56A24FE700302D67B14700302D57CB9
:10D4700024FB700302D58824FE700302D5EB24FD43
:10D48000700302D62824FE700302D628248A700373
:10D4900002D62D02D66E900325E0600D901580EF28
:10D4A000F090032504F002D67B900327E07003027E
:10D4B000D67B14F0600302D67B12077802D67B90ED
:10D4C0001549E0FAA3E0FBC3EA9415EB940040028F
:10D4D0007A14750860750915750A0078081205B97F
:10D4E000EAF97A287B621206F4740312053D90155E
:10D4F00060E0547F80AF901549E0F8A3E0F9C3E8FD
:10D500009425E994004017E824DCF8E934FFF9E8B1
:10D51000FAE9FB90157CEAF0A3EB12E071F07508D4
:10D52000247509C0750A0078081205B979247A288B
:10D530007B621206F4740312053D02D67B74091255
:10D540000669AC82AD837583C175821074041204C0
:10D55000DF7409120669A982AA8389088A09750AF3
:10D560000078081205B9790480C4901554E064026B
:10D57000600302D67B900325EF02D4A5A3E07003DD
:10D5800002D67B90158080F0740D120669AC82ADD6
:10D59000837583C07582DC740C1204DF901596E0ED
:10D5A000C0E07413120669D0E0F0901595E0C0E079
:10D5B0007414120669D0E012D685940DED940040E3
:10D5C000027C0C906215E0D2E7F0906212E0D2E7A4
:10D5D000F0740D120669A982AA8389088A09750A5E
:10D5E0000078081205B9ECF902D52EEF120669ACE5
:10D5F00082AD837583C07582F074081204DF9015C4
:10D6000096E0C0E07403120669D0E0F0901595E052
:10D61000C0E07404120669D0E012D6859409ED9436
:10D620000040027C08EF80AB120796804E901549AF
:10D63000E0FAA3E0FB851382851483AC82AD837589
:10D6400083C1758222EF1204DFC3EA9402EB9400D7
:10D6500040027A01851382851483AC82AD838C08E5
:10D660008D09750A0078081205B9EA02D5E7901508
:10D6700080EF12E01F742012E0161FEFF9741912E8
:10D68000053D02D324F0901549E0FCA3E0FDC3EC76
:10D690002274F61202C190159AE06480702F900DEA
:10D6A0005B7480F0900D5F7401F0900D637404F072
:10D6B000901595E0900D67F0901596E0900D68F04C
:10D6C000900D9B7455F0A374AAF002D81CE06481FD
:10D6D000600302D81C75083E75090078081205BD64
:10D6E0007C5F7D037A9D7B0B12DA9F12053D900DC6
:10D6F0009B7455F0A374AAF0A374F8F0A374FFF020
:10D70000A3F090151BE0900DA07021E4F0A3F0F5BC
:10D710000875090178081205BD7C9D7D137A9D7BF3
:10D720001112DA9F12053D90129C803974FFF0A30C
:10D73000740FF075082078081205BD7C017D157AFC
:10D740009D7B1112DA9F12053D750800750901785D
:10D75000081205BD7C9D7D137ABD7B1112DA9F12E4
:10D76000053D9012BCE4F090149CE0700302D803D5
:10D7700012DAE02404FEE93400FF7A047B007C0422
:10D780007D0280227AFF7B0FEAC0E012D81FD0E032
:10D7900012D82AEB540FC0E012D81FD0E0F0EA24D0
:10D7A000010AEB3400FBC3EE9AEF9B4056EE6A7021
:10D7B00002EF6B70047AFF7B0FECF8EDF9E82401BF
:10D7C0000CE93400FDEAC454F0F508749D28F58294
:10D7D000740B39F583E04508F08A088B09740478E6
:10D7E0000812061712D81FE50812D82AEA24010ADF
:10D7F000EB3400FBEE6A7002EF6B6088C3EE9AEFC9
:10D800009B508575080075090278081205BD7C9D3E
:10D810007D0D7A9D7B0F12DA9F12053D02D8F674BA
:10D820009D2CF582740B3DF58322F0EC24010CED68
:10D830003400FD2274F61202C174FF1205A3901584
:10D840009AE0C39480503290149CE0602C90159A1A
:10D85000E05407F87401B800028004C333D8FCC058
:10D86000E0E0131313541FF874E528F582741412C2
:10D87000DEB2D0E0F8E0586037851382851483E487
:10D88000F0E58290153AF0851483E583901539F020
:10D890009015407412F075D610E5D6A2E450FA75D2
:10D8A000D71090159AE0C39480403E1207668039E5
:10D8B000E5C7FA90153A12DED81205E22400E50910
:10D8C0003480901539F090154012DEC575D610E5FC
:10D8D000D6A2E450FA75D710E5D6A2E440FA8AC77A
:10D8E0007A9D7B0BE0F9120694740102DA9153F4ED
:10D8F000FED29043FE017F020203F674F61202C1CB
:10D9000074FC1205A390159BE0C39419500302DA2E
:10D910004C851382851483AC82AD837583C1758277
:10D920001474041204DF7EBD7F118008EE2420FEF3
:10D93000EF3400FF75082075090078081205BD7CDA
:10D940008C7DC0EEFAEF12DAC112053D8B09EA4573
:10D950000970D9EE24E0FEEF34FFFF750803750966
:10D960000078081205BD7C187DC1EE240812DAB9D2
:10D9700012053D8B09EA4509750804750900780808
:10D9800070551205BD740212066912DAB212053D15
:10D990008B09EA4509900328700A7404F090151B5E
:10D9A000E402DA88740212DEAB740212DAC874641C
:10D9B000F0EE241D12DAA8EE241E12DAA812DAA55F
:10D9C000750820F50978081205BDEEFCEFFD12DAA6
:10D9D0009B12053D02DA891205BD74021206691216
:10D9E000DAB212053D8B09EA4509700B90032874E1
:10D9F00003F090149C80A912DAE02401F508E934C0
:10DA000000F509740378081205E29003280412DE79
:10DA1000AB740312DAC8E4F0EE241D12DEAFE508A1
:10DA2000F0EE241E12DEAFE509F012DAA5F5087556
:10DA3000090178081205BD7CBD7D117A9D7B13120A
:10DA4000DA9F12053D90149C7401803CE0C3941150
:10DA50004037900FA0E0701B90151BE06015E4F0BC
:10DA60009003287404F090149CE0701D7901120654
:10DA7000B28016900FA1E054F0700E90149CE060FC
:10DA800008E4F09003287403F09003277408F074FE
:10DA90000412053D02D8F67C6C7DC07A017B15121C
:10DAA00007D2740222EE241FF582EF3400F583E4DE
:10DAB000F022AC82AD83EE241CFAEF340012DAC1FE
:10DAC00022FB1207CC740222F0EE241BF582EF3405
:10DAD00000F583E4F0EE241CF582EF3400F5832298
:10DAE00012DAE9F895E0F9E82290C120E0F890C157
:10DAF00021E0FAE8C39A2274F61202C112DBC79041
:10DB00000328E014600A24FE604E14607102DBB842
:10DB1000901500E0600302DBB812068EE970030284
:10DB2000DBB875084075090078081205BD7C9D7D3D
:10DB30001390C121E0F508740978081205E224C0A9
:10DB4000FAE5093401FB120688740212053DC2AFE2
:10DB500075C9AB75C95B80FE901500E07004790053
:10DB6000800890151BE0601679011206B275080056
:10DB700075090178081205BD12DBD012053D90141D
:10DB80009FE4F0A3F090149CE0702D90151BE070C2
:10DB90002775082075090078081205BD12DA97125A
:10DBA000053D75086478081205BD7CFF7D007A9DEF
:10DBB0007B1412DBD812053D900328E4F07AD07B69
:10DBC0000712078402D8EE53F4FEC29043FE0122EE
:10DBD0007C007D007A9D7B131207D8740222C082DC
:10DBE000C0837415F5D375D2219015227428F09056
:10DBF00015217462F090152512DC3F7412F0901517
:10DC00002C749DF0740390152BF090152D12E06F7D
:10DC10007420F09015347428F09015337462F090ED
:10DC2000153512DC3F7442F090153C749DF0740B76
:10DC300090153BF090153D12E06F742002E084E4F3
:10DC4000F0A37440F0A37420F0A322EBC313FBEA0B
:10DC500013FAEAF8EBF9E824FFFAE934FFFBE849A4
:10DC6000601A00000000000000000000000000003A
:10DC70000000000000000000000080D602052574AE
:10DC8000F61202C1906216E0FA741F6A705578416C
:10DC90007915906228E088828983F0A3A882A983FD
:10DCA0001AEA70EE75080475090078081205BD7C43
:10DCB000F87DC07A417B1512DAC212053D8B09EA64
:10DCC0004509702A90154EE0702490154DE06004CF
:10DCD0006480701A90154FE014C39410501012070E
:10DCE0005A800B9062147410F0E0A2E440FB906242
:10DCF00014E4F002D8F674F61202C1906214E4F053
:10DD0000906214E0A2E0400302DE8612DEB7120544
:10DD1000E212DE9F901524F0E9901523F075D602EB
:10DD2000E5D6A2E150FA75D702906214E4F090159E
:10DD300099E014F0700B12DEEA700690032674026C
:10DD4000F090159BE004F06420600812DEFE600392
:10DD500002DE8690159AE06481700C1207729015AD
:10DD60009AE004F002DE81900328E06402702F90B4
:10DD7000159AE064826006E0C3948050217A9D7B0E
:10DD80000B12069AE9600302DE817508207509000E
:10DD900078081205BD12DA9712053D02DE81901552
:10DDA0009AE0C39480400302DE81901500E0600396
:10DDB00002DE817A9D7B0B90159AE0F9120694E9B8
:10DDC000700512DE9180FE75080075090278081250
:10DDD00005BD7C9D7D0B90159AE0F50875090074D2
:10DDE0000978081205E2FAAB0912068874021205D6
:10DDF0003DE5C7FA90152A12DED81205E22400E5A7
:10DE0000093480901529F090153012DEC575D604BE
:10DE1000E5D6A2E250FA75D704E5D6A2E240FA8A26
:10DE2000C775090878081205BD7C9D7D037A9D7B26
:10DE30000B12DAC212053D8B09EA4509600512DEB4
:10DE40009180FE12DEFE603990159AE004F0C394D2
:10DE500078400512DE9180FEE05407F87401B800A6
:10DE6000028004C333D8FCC0E0E0131313541FF83E
:10DE700074D528F582741412DEB2D0E0F8E0586050
:10DE8000C790159BE4F012DEFE600302DD0002D8AD
:10DE9000F679011206B2C2AF75C9AB75C95B2274BF
:10DEA0009D2508F8740B3509F9E822F0EE241AF5DF
:10DEB00082EF3400F5832290159BE0F50875090088
:10DEC00074067808227452F090159AE0C4540FF842
:10DED000E5C754F848F5C722E4F090159AE0540FCE
:10DEE000F508750900740B7808227408F0901597EE
:10DEF000E024FFF0F8A3E034FFF0F9E849229015A0
:10DF000097E0F8A3E0F9E8492274F61202C174FC24
:10DF10001205A3901558E0FA901557E0F9EA90150C
:10DF200097F0A3E9F0901552E0C0E074031206697F
:10DF3000D0E0F0901553E0C0E07402120669D0E022
:10DF4000F0901554E0C0E07401120669D0E0F09042
:10DF50001555E0851382851483F074021206691248
:10DF6000DF017028851382851483E0F8A3E0F9901F
:10DF70001597E028FAA3E039FB901595E0240CF8FA
:10DF8000A3E03400F9C3EA98EB99401C9015807423
:10DF90000112E01F7421F0A3E412E0169015911213
:10DFA000065190157C12065D9015997408F0851342
:10DFB00082851483E0FAA3E0FBC3EA940CEB94009F
:10DFC0004008EA24F4FAEB34FFFB8A088B09740258
:10DFD0007808120617A808E8333354FCF9EAC39905
:10DFE00033333354F890159BF0851382851483C323
:10DFF000E0940CA3E0940050047480800490C1214C
:10E00000E028F8E890159AF0901550E06428700325
:10E0100012076C02DA8FF0901560E04480F022F075
:10E02000901563E054F0F8A3E0F9E8440590156317
:10E03000F0A3E9F090156E228041C082C083900366
:10E040001CE064FE7021900309E0701790031674C1
:10E0500023F0A374C112E07104F0A3E4F09003096B
:10E06000048009640160069003097404F08016744A
:10E0700008F0A3E4F0A32280028000C082C0839055
:10E0800003097404F0D083D08202052580ED0205D7
:10E090002502052574F71202C17409120669E0FE13
:10E0A000A3E08015A3AA82AB838C828D83A3AC826C
:10E0B000AD83EE24FF1EEF34FFFFEE4F60198C821C
:10E0C0008D83E0F88A828B83E0F9E86960D6E9C342
:10E0D00098FA95E0FB80047A007B007F010203F64A
:10E0E00074F61202C1EAF8EBF9740A120669E0FE4E
:10E0F000A3E0FF80188C828D83E088828983F0A35F
:10E10000A882A9838C828D83A3AC82AD838E088F75
:10E1100009E50824FF1EE50934FFFFE508450970FD
:10E12000D47F020203F6C082C083851382851483E4
:10E13000E0F8A3E0F9E84960128A828B83ECF0A34F
:10E14000E824FF18E934FFF94870F2D083D0820246
:10E150000525FFFFFFFFFFFFFFFFFFFFFFFFFFFFA3
:10E16000FFFFFFFFFFFFFFFFFFFFFFFFFFFFFFFFBF
:10E17000FFFFFFFFFFFFFFFFFFFFFFFFFFFFFFFFAF
:10E18000FFFFFFFFFFFFFFFFFFFFFFFFFFFFFFFF9F
:10E19000FFFFFFFFFFFFFFFFFFFFFFFFFFFFFFFF8F
:04000005000005F5FD
:00000001FF
